:020000040800F2
:10000000FC4F0020B51B00086901000863010008CF
:100010005D010008570100085101000800000000C0
:10002000000000000000000000000000690100085E
:10003000690100080000000069010008690100086A
:10004000690100086901000869010008000000005A
:1000500069010008690100086901000869010008D8
:1000600069010008690100086901000869010008C8
:10007000000000006901000869010008000000009C
:10008000690100086901000869010008092F0008DA
:10009000212F0008352F00086901000869010008B8
:1000A0006901000869010008690100086901000888
:1000B00069010008000000006901000869010008EA
:1000C0006901000869010008690100086901000868
:1000D00000000000811C0008690100086901000897
:1000E00069010008000000006901000869010008BA
:1000F0006901000869010008690100086901000838
:100100006901000869010008690100086901000827
:1001100000000000000000006901000869010008FB
:100120006901000869010008690100080000000079
:1001300008B501F03FFDFEE70000E002030000000B
:1001400099210008000000000000000000000000ED
:10015000042002F09CB8032002F099B8022002F0BB
:1001600096B8012002F093B8052002F090B8054A35
:100170004FF0FF33136053609360034B034A1A60E0
:10018000704700BF80E100E008ED00E000000008DB
:10019000084601F0ABBD024A024B1A60FEE700BF01
:1001A0000400FA050CED00E001228240044B1B68BC
:1001B0001A420BBF034B044B1A601A80704700BFF2
:1001C0000C1801401018014014180140814B2DE912
:1001D000F7431A68196812F0005F41F080711960E6
:1001E00002D07D4B1B68984702F016F801F09CFA8C
:1001F00002F084FA02F014FA784B80221A8001F09F
:100200004FFB602104220B464FF4E130009201F0D5
:10021000F1FC734801F086FD01F09AFD0020714960
:1002200001F09AFC704B714D19687148B1FBF5F102
:1002300001F098FC6F4B70481968704CB1FBF5F1F8
:1002400001F090FC01F084FD6D4B6E481968B1FB24
:10025000F5F101F087FC21686B48B1FBF5F15D4DCC
:1002600001F080FC2968694801F07CFC2B68684833
:1002700043F080732B60296801F074FC2B6865489B
:1002800043F060432B60296801F06CFC00200121E1
:1002900001F098FF60484FF0387101F0C1FF5F4AEC
:1002A0001060914628B95E4801F05CFC01F050FDF9
:1002B000FEE790F99010002905DA5A4801F052FC47
:1002C00001F046FDFEE74FF0387103F08BF802F0C5
:1002D00087FC4FF0387000F0FBF94FF0387152484E
:1002E00001F040FC01F034FD504B3B4D1B88504861
:1002F000B3F5807F8CBF4FF400614FF4806101F053
:1003000031FC01F025FD2B684A48D3F807104A4F0D
:1003100001F028FC01F01CFD23683A680626B3FBB7
:10032000F6F603EB830303EB0208D9F8000008227A
:100330000023424902F084FC414B00221A603F68CE
:100340009946F7193C4B1B68FB1A002B03DA032074
:10035000BF19FFF729FF00F045FDD9F80030002B49
:10036000F0D1354B1B68C3EB0803002BEADA2A688F
:10037000AA4202D3334B9A4211D93348164901F0AD
:10038000F1FB01F0E5FC2C4B22681B6803EB5203E8
:10039000294A12689A1A002AFADCFFF7FCFE0D4B74
:1003A0001A6842F001021A600A4B1B6813F0020F30
:1003B000FAD0264B45F255521A60254A00211160A9
:1003C000023151604AF6AA221A604CF6CC421A60F9
:1003D000FEE700BF2410024004500008141401403E
:1003E0001C35000891010008D80D002040420F0084
:1003F00055350008D40D00206F350008CC0D0020C5
:10040000D00D002089350008A3350008BD3500084F
:10041000EA35000829360008403A0008180500208F
:100420006836000885360008A9360008E0F7FF1F87
:10043000BC360008CD360008041000E0503A000831
:10044000800D002000000408E33600080030004062
:10045000043000404FF0FF307047034B0C221A600D
:100460004FF0FF30704700BF54160020024B0B22A4
:100470001A604FF0FF307047541600204FF40053BD
:100480004B600020704701207047022804D9034BBD
:1004900009221A600020704701207047541600207E
:1004A000024B16221A604FF0FF307047541600209E
:1004B000024B1F221A604FF0FF3070475416002085
:1004C00000207047044B1A680AB9044A1A601A6877
:1004D00010181860104670471C05002058160020A0
:1004E00020B1034B09221A604FF0FF30704700BF64
:1004F000541600204FF400534B60002070474FF01B
:10050000FF307047024B02221A604FF0FF307047F5
:1005100054160020024B0A221A604FF0FF30704739
:1005200054160020012870B50C46164603D0022848
:1005300021D100251CE000250BE0605D01F0D6FB19
:10054000635D0A2B04D10D2001F0D0FB01F000FC0B
:100550000135B542F1DB13E0605D01F0C7FB635D7F
:100560000A2B04D10D2001F0C1FB01F0F1FB013594
:10057000B542F1DB04E0034B09221A604FF0FF366D
:10058000304670BD5416002008B5012002490422EF
:10059000FFF7C8FFFEE700BF183700080F4A104BEF
:1005A0001168D3F810084A4200EA0202801A1818AB
:1005B00030B55418C3F8080821F007010020C3F82B
:1005C0000028C3F80448A3F80C08591803E0F2E81F
:1005D0000245E3E802458B42F9D330BD0400002018
:1005E00028050020034B014618680422002302F06E
:1005F00027BB00BF18050020044B012283F8200808
:1006000003F500601830C3F81C28EBE7280500202C
:1006100037B58268254C0092C26803460192D4F82F
:1006200028182348D4F810285B6801F09BFA01F0E1
:100630008FFBB4F80C1803292FD8DFE801F0021162
:1006400006061C4801F08EFA2AE01B4801F08AFADF
:1006500001F07EFBD4F8000801F008FF84F82208BE
:10066000164B124D1A682946D4F8000801F092FE84
:1006700084F82108124801F075FA01F069FBD4F8FA
:100680002028104B02EA030353B10F4895F82118B4
:1006900095F8222801F066FA02E00C4801F062FAAF
:1006A00003B0BDE8304001F053BB00BF2805002077
:1006B0001E3700083A37000862370008040000209F
:1006C0008E37000800FFFF00AD370008CA3700086A
:1006D00070B5234C4FF00063C4F81038214B054629
:1006E0001A88214BB2F5807F8CBF4FF400614FF424
:1006F00080611960196892024B1E03F0006302F1D9
:100700000062C4F8003819480023C4F82C28A4F863
:100710000C38C4F8084801F025FAD4F82C1814480D
:1007200001F020FA45F03043C4F81858114845F05C
:100730004045C4F83038C4F8405801F013FAD4F8F2
:1007400018180D4801F00EFAD4F830180B4801F0D3
:1007500009FA0B48D4F84018BDE8704001F002BA1D
:1007600028050020E0F7FF1F04000020DF37000805
:10077000F53700080B380008163800082238000842
:100780002E3800084278037843EA022070478378C5
:10079000C2781B0443EA026302784078134343EAB9
:1007A0000020704770B54468002304F00F04082C43
:1007B00028BF082409E00749C518D1F810280133DB
:1007C00012F8016B2E72C1F81028A342F3D1BDE8D4
:1007D000704007E7280500200B4B41F60E02C318B6
:1007E00093420BD9B0F1006F0AD3084B1B68B0EBF2
:1007F000832F94BF00204FF0FF30704700207047D8
:100800004FF0FF30704700BFFF1F00E0E0F7FF1F11
:1008100008292DE9FF4105460E4617466C4C0ADDB6
:100820000520FFF7E9FE7B686A480093BB680193E7
:10083000FB68029311E0D4F85038D3B9D4F8543897
:1008400005200133C4F85438FFF7D6FE7B686248B0
:100850000093BB680193FB680293D4F82818D4F87E
:100860001028334601F07EF904B0BDE8F04101F0F4
:100870006FBAD4F81038B3F1006F4BD3D4F82C28EA
:100880009A4247D943E0554BD4F810281B68D4F856
:1008900000185B4202EA03038B4209D0504801F082
:1008A00061F901F055FA3846FFF7B2FEFFF776FE20
:1008B000D4F8101815F8012B0878454B904217D042
:1008C000D3F8582821F0010142F00102C3F858285A
:1008D000B3F80C2842F0010292B2A3F80C28088861
:1008E0004FF6FF7188421CBF42F00202A3F80C28A9
:1008F00015F8012CD4F80838013E03F8012BC4F890
:100900000838D4F8103876B20133C4F81038002E05
:10091000B9DC54E0002E52DD731E4DE05FFA83F81F
:1009200018F0010F05D0D4F81078294E17F0010FF8
:100930000AD0D4F8103815F8012B03F8012BC4F8AD
:10094000103808F1FF3337E05210790001F00C0144
:1009500002F003020A4323498A5C042A10D0082AC1
:1009600019D0022A28D12846FFF70CFF3870D6F894
:10097000103802350233C6F81038A8F102031BE024
:100980002846FFF704FF47F8040BC6F81078043533
:10099000A8F1040310E02846FFF7F9FEB84648F82E
:1009A000040BC6F81088281DFFF7F1FE08F10403B8
:1009B0007860C6F8103802E05AB2002AAEDCD4F8EB
:1009C00028380133C4F8283804B0BDE8F08100BFEE
:1009D000280500203A380008593800080400002093
:1009E00078380008603A000810B5FFF711FE064895
:1009F0000323C0F81C38043380F8203800F5006069
:100A00001830BDE81040EDE528050020F7B5416835
:100A1000044601F00F07082F03D0274801F0A2F881
:100A20001BE08568254AC6682D0A25F07F45964259
:100A300025F470051346224905D3D1F82C0802EBA2
:100A4000850290420ED2D1F82C281E4800923146E1
:100A50002A4603EB850301F085F803B0BDE8F040BA
:100A600001F076B9184B9E4203D9AA19B2F1016F71
:100A700005D9164803B0BDE8F04001F073B82B4625
:100A80003146134801F06EF801F062F9294630460C
:100A900001F082FB054629460E4801F063F801F09B
:100AA00057F901F055F9032320466760E56023728A
:100AB00003B0BDE8F04095E5A838000800500008F4
:100AC00028050020C3380008FF3F0008FA38000856
:100AD000213900083C39000843682DE9F04103F052
:100AE0000F03052B0446184D22D1D5F8583809308C
:100AF00043F00103C5F85838FFF749FE0646FFF7F3
:100B00006BFE074688B94FF00408012384F809807A
:100B1000C5F81068C5F85C68C5F85038FFF73EFDA9
:100B200084F80980C5F8287807E00C23637204E094
:100B30000023C5F850380D3343720223204663600A
:100B4000BDE8F0414EE500BF28050020032313B5A2
:100B500043600A4B04461968CBB24372080AC0B21C
:100B6000A072227A0090064800F0FCFF01F0F0F835
:100B7000204602B0BDE8104034E500BF040000206C
:100B8000503900087FB504460930FFF700FE052301
:100B90006360024612F8013B63724678511CA672EC
:100BA00055780131E5729078227A207302900648D8
:100BB0000096019500F0D6FF01F0CAF8204604B077
:100BC000BDE870400EE500BF7139000837B5044636
:100BD00008460D46FFF700FE40B11148294600F0D7
:100BE000C1FF03B0BDE8304001F0B2B80523636037
:100BF000294611F8012B62726B78A3724D78E57269
:100C00008878217A207301900648009500F0AAFFA9
:100C100001F09EF8204603B0BDE83040E2E400BF9A
:100C200094390008BC3900087FB50E0A0D0C052365
:100C30004360F6B2CBB2EDB243728672C57204461F
:100C4000080E2073227A029005480096019500F064
:100C500089FF01F07DF8204604B0BDE87040C1E492
:100C6000E1390008082370B54360124B04461B6845
:100C70001149D3F80700227AD3F80B30884238BFE5
:100C800001460902A160E36022720C4800F06AFF8D
:100C9000002563190A48197A013500F063FF082D11
:100CA000F7D1084800F05EFF01F052F82046BDE899
:100CB000704097E404500008FFFF0F00FC39000863
:100CC0000D3A00085235000807B5017A03464A1E5E
:100CD000142A62D8DFE812F01500610030007500B8
:100CE00075001A00240029007500750035006100A8
:100CF00061003A004000450048004E00610061007C
:100D00005300184603B05DF804EBE5E65A68042A80
:100D100057D103F10800FFF73AFD0368984750E008
:100D2000184603B05DF804EB5EE6274A274B1168CE
:100D300041EA0303136044E0184603B05DF804EB96
:100D400064E6184603B05DF804EBFFE62049184658
:100D500003B05DF804EB39E7184603B05DF804EB27
:100D600010E718461B4901E01B49184603B05DF81F
:100D700004EB59E7184603B05DF804EB72E75968D5
:100D800003F1090001F07F0101391A46FFF740FD28
:100D9000042003B05DF804EB2EE4104AD2F860089A
:100DA0000130C2F860089A680D480092DA68019232
:100DB0001A685B6800F0D6FE03B05DF804EB00F043
:100DC000C7BF03B000BD00BF0CED00E00400FA0592
:100DD000040000080050000800F80708280500205B
:100DE000113A000838B502E0206801F011FF094C03
:100DF000206801F011FF25460028F5D103E0054BDE
:100E0000186801F007FF286801F00DFF0028F6D1EF
:100E100038BD00BF1805002070B50C4609680546AE
:100E200009B1FFF7F9FF28462146BDE8704000F000
:100E3000D3B800BF40F20803C2F2000370B5054604
:100E40001B6898424AD0426A02B3D368CBB10021F2
:100E50000E4653F8211009B908E021460C682846CF
:100E600000F0BAF8002CF8D16A6AD3680136202E57
:100E7000314601D0D368ECE72846194600F0ACF8BB
:100E80006A6A116811B1284600F0A6F8696911B1C3
:100E9000284600F0A1F8696A11B1284600F09CF8D4
:100EA000A96B11B1284600F097F8E96B11B12846FB
:100EB00000F092F8296C11B1284600F08DF8AB6C67
:100EC0002BB1D3F8881011B1284600F085F8696B72
:100ED00011B1284600F080F8AB6903B970BDAB6A68
:100EE00028469847D5F8D8100029F7D02846BDE8FD
:100EF000704091E7F8B5074698B1BB6C63B15E6886
:100F0000002E09DDB51C002403EB850555F8043DD2
:100F100001349847B442F9D1BB6A0BB138469847BF
:100F2000F8BD40F20803C2F200031F68E5E700BF06
:100F3000F8B540F2FC04C2F200040F46054600F08A
:100F4000D5FBA3685E6826F0030606F57E630F33C3
:100F5000DF1B3F0B013F3F03B7F5805F07DB00213D
:100F6000284600F0C7FBA3689B19984204D0284686
:100F700000F0BEFB0020F8BD7942284600F0BAFB25
:100F8000B0F1FF3F10D040F69C53A168C2F20003BD
:100F9000F61B284646F001061A684E60D71B1F60F4
:100FA00000F0A6FB0120F8BD0021284600F0A2FBBE
:100FB000A368C21A0F2ADADD40F2045440F69C51AD
:100FC000C2F20004C2F2000142F001025A6023683A
:100FD000C01A0860CBE700BF2DE9F0410D4604467A
:100FE000002958D000F082FBA5F1080240F2FC0075
:100FF0005668C2F2000026F00103D0F808C0D118EC
:101000008C454F6827F0030765D016F001064F6046
:1010100031D00026CD196D6815F0010F06D1DB190E
:10102000002E4BD08D68C968E9608D6043F00101E6
:10103000D3505160D6B9B3F5007F2ED3590A042995
:101040006BD89E093836F5004519A968A94203D125
:1010500069E089688D4204D0486820F0030083422B
:10106000F7D3CB68D3609160CA609A602046BDE830
:10107000F04100F03DBB55F8085C00F1080C521B34
:101080005B199568654546D0D2F80CC0C5F80CC010
:10109000CCF80850BEE7BDE8F081DB0801254668C2
:1010A00000EBC3019B1015FA03F3D1608D6846EA8B
:1010B000030343609560EA608A60D7E78D682B4F31
:1010C000BD42B0D1EA6043F00101AA60D5609560ED
:1010D0005160D350CAE716F0010F3B4407D155F8D1
:1010E000081C521A5B189568D168E9608D6040F25F
:1010F000085143F00105C2F20001556082600A68A0
:101100009342B3D340F698532046C2F200031968C5
:10111000FFF70EFFAAE701267CE714290CD801F19E
:101120005B06F50090E701254768B6100B46B54011
:1011300047EA0505456095E7542903D81E0B6E362E
:10114000F50081E7B1F5AA7F03D8DE0B7736F5000D
:101150007AE740F25455A94203D89E0C7C36F5003C
:1011600072E74FF47C757E266EE700BF0401002015
:101170002DE9F04F01F10B04162C83B0064631D94E
:1011800024F00704E30F8C422CBF194643F0010101
:10119000002930D1304600F0A9FAB4F5FC7F2FD2F7
:1011A0004FEAD40C40F2FC05C2F2000505EBCC027C
:1011B0002F46D368934200F02D825C6803F1080843
:1011C000DA68304624F0030499681B195C68CA6029
:1011D00044F0010491605C6000F08AFA404603B07C
:1011E000BDE8F08F002310248C422CBF194643F039
:1011F00001010029CED00C234FF000083360EDE749
:101200005FEA542C04BF4FEAD40C4FEACC0040F004
:10121000868040F2FC05C2F2000528182F46C368FC
:10122000984206D10DE0002980F27981DB6898426E
:1012300007D05A6822F00302111B0F29F3DD0CF1CD
:10124000FF3C0CF1010CBD4A93689A4208BF7868D4
:1012500024D0586820F00300011B0F2900F3C0813F
:101260000029D260926080F29480B0F5007F80F017
:101270007781C0084FF0010ED7F8048007EBC0015A
:1012800080100EFA00F0D960D1F808E040EA0800BA
:101290007860C3F808E0CEF80C308B604FF0010E98
:1012A0004FEAAC030EFA03FE86457DD810EA0E0F16
:1012B00008D12CF0030C4FEA4E0E0CF1040C10EA8E
:1012C0000E0FF8D007EBCC0AE146D046D8F80C0058
:1012D000804507D196E1002B80F2A681C068804549
:1012E00000F09081416821F003010B1B0F2BF2DD10
:1012F0008046C568011944F0010E58F8087F43F094
:101300000104C0F804E030464C60FD60AF60D1607D
:101310009160CA608A60CB5000F0EAF95EE7BCF1E8
:10132000040F9EBF4FEA941C0CF1380C4FEACC001E
:101330007FF66FAFBCF1140F9CBF0CF15B0C4FEA52
:10134000CC007FF666AFBCF1540F9EBF4FEA143C51
:101350000CF16E0C4FEACC007FF65BAFBCF5AA7FB8
:101360009EBF4FEAD43C0CF1770C4FEACC007FF6DD
:1013700050AF40F254539C4595BF4FEA944C4FF404
:101380007C700CF17C0C4FF07E0C98BF4FEACC00C7
:101390003FE71A1803F108083046536843F0010389
:1013A000536000F0A5F919E7D7F80880D8F80430A1
:1013B00023F003094C45C4EB090294BF0023012329
:1013C0000F2AD8BF43F00103002B00F0B98040F68C
:1013D000985AD5F80834C2F2000A3046B3F1FF3FFC
:1013E000DAF8002002F1100BA3441FBF0BF57E6B4F
:1013F0000BF11F0B2BF47E6B2BF01F0B594600F0EB
:1014000079F9B0F1FF3F034600F0188108EB0901BC
:10141000814200F21081DAF8042081425A44CAF86D
:10142000042000F03E81D5F808E440F2FC05C2F249
:101430000005BEF1FF3F17BF8218C5F80804C1EBD5
:101440000201CAF8041010F0070517BFC5F108051E
:101450004FF48055431905F5805503EB0B023046D8
:1014600001931205120DAD1A294600F043F9019BB4
:10147000B0F1FF3F00F02C81C11A491941F0010180
:10148000DAF80420B84540F6985BBB602A44C2F203
:10149000000B5960CAF8042017D0B9F10F0F40F2C1
:1014A000E180A9F10C03D8F8045023F007030520CC
:1014B00008EB03010F2B05F0010543EA0505C8F809
:1014C00004504860886000F2FB80DAF82C1040F687
:1014D0009853C2F200038A42DAF8301088BFDA6209
:1014E00040F698538A42C2F2000340F2A780D7F830
:1014F00008801A63D8F8043023F003039C42C4EB3D
:10150000030294BF002301230F2AD8BF43F0010335
:10151000B3B130464FF0000800F0EAF85EE69A18E2
:10152000D9689C6803F108085568304645F0010306
:10153000E1608C60536000F0DBF84FE604010020AE
:1015400008EB040342F0010244F001043046C8F8FD
:10155000044008F108085A60BB6000F0C9F83DE695
:10156000410A04299CBF4FEA901E0EF1380E1DD986
:10157000142998BF01F15B0E18D954299CBF4FEA7A
:10158000103E0EF16E0E11D9B1F5AA7F9CBF4FEA45
:10159000D03E0EF1770E09D940F2545E714596BFE8
:1015A0004FEA904E4FF07E0E0EF17C0E07EBCE0808
:1015B000D8F80810414503D147E08968884505D02F
:1015C000D1F804E02EF0030E7045F6D3D1F80CE00C
:1015D000C3F80CE099607868CB60CEF808305DE61F
:1015E0001D1941F00107D56044F0010495603046B3
:1015F0005C6003F10808EA60AA606F60695000F05F
:1016000077F8EBE509F1010919F0030F2FD008F184
:1016100008085BE603F108025B699A4208BF0CF117
:10162000020C3FF410AEC8E580464318C26830464D
:1016300058F8081FCAE5B8453FF4EDAED7F8088062
:10164000D8F8043023F0030358E74FF00109D7F826
:1016500004804FEAAE008E4609FA00F048EA000026
:101660007860B5E7984601225A60002346E7514664
:101670001CF0030F0B460CF1FF3C2CD053F808195B
:101680009942F5D07B684FEA4E0E9E453FF68CAEF0
:10169000BEF1000F3FF488AE1EEA030F20D0CC4607
:1016A00010E64FEA015E4FEA1E5EBEF1000F7FF4C6
:1016B000BAAEBB680BEB090141F00101596004E7C8
:1016C000304608F10801FFF787FCDBF80420FCE650
:1016D00001210025D4E67B6823EA0E037B60D1E775
:1016E0004FEA4E0E09F10409D6E700BF704700BF6C
:1016F000704700BF38B541F25464C2F20004054699
:10170000084600232360FEF7DDFEB0F1FF3F00D066
:1017100038BD2368002BFBD02B6038BD0346012069
:101720000BB1033B984070472DE9F041504C0778CE
:1017300000232360042F35D8DFE807F035030C17AA
:1017400024004C4B4FF480321A601A689203FCD587
:10175000012629E0474B4FF480221A604FF4803273
:101760001A601A689603FCD5F2E7434A136843F4FB
:10177000004313603F4B4FF480321A601A689503A0
:10178000FCD5E5E73C4A136843F400431360394B4A
:101790004FF480221A604FF480321A601A68910365
:1017A000FCD5D5E7FEE700264378344D8268E95C36
:1017B0004A43C17801314900B2FBF1F230490FB917
:1017C00003B152080A6009682E4A914206D92E4A8E
:1017D00091422E4A94BF312732271760477990F8FB
:1017E00004E090F806C0FA0242EA0E2242EA0C1225
:1017F000DFF87C802260A3B1C2789B0443EA4242B6
:101800008378D8F8006042EA03433343C8F80030D5
:10181000184B1A6842F080721A601A689201FCD55F
:101820000226236823F0030333432360B6002368B2
:1018300003F00C03B342FAD105EB4C052C8A144A91
:10184000B1FBF4F41368704643F07C031360114B52
:101850001C60FFF763FFB4FBF0F00F4B18603846D5
:10186000FFF75CFFB4FBF0F00C4B1860BDE8F081B3
:10187000041002400010024004000140743A0008C5
:10188000CC0D002000366E01006CDC02002002400E
:1018900018100240D80D0020D40D0020D00D0020DB
:1018A000054A136843F080731360044A136843F0D9
:1018B00001031360704700BFFCED00E0001000E082
:1018C000F0B50124B0FBF4F58D4201D34C43F9E7A8
:1018D0000026D4B1B0FBF4F504FB1500B4FBF1F421
:1018E0001EB9002D01DC002CF3D1092D03F1010EEE
:1018F000EFB204DD002A14BF3725572500E030255C
:101900003D441D7001367346E3E71C70F0BDF0B531
:101910000124B0FBF4F58D4201D34C43F9E70026D6
:10192000D4B1B0FBF4F504FB1500B4FBF1F41EB91F
:10193000002D01DC002CF3D1092D03F1010EEFB2D3
:1019400004DD002A14BF3725572500E030253D442B
:101950001D7001367346E3E71C70F0BD2DE9F041C0
:10196000069D002B06460F462B4614BF4FF030084D
:101970004FF0200813F8011B09B9144603E0002AB0
:10198000FBDD013AF6E7002C04DD30464146B8475E
:10199000013CF8E715F8011B11B13046B847F9E7EB
:1019A000BDE8F08103685A1C0260197070472DE988
:1019B000F04F8046894615461C4687B02978002995
:1019C00000F0C780252902D00135404683E06A78BF
:1019D0000027302A0CBFAA78AE1CA2F1300312BF38
:1019E0004FF0000AEE1C4FF0010A092B19D8A2F1A2
:1019F0003003D9B2092905D80A2202FB073716F8A5
:101A0000012BF4E7A2F16103052B02D8A2F15703E1
:101A100005E0A2F14103052B03D8A2F137030A2BFD
:101A2000EADD6C2A3BD13278751C632A3AD007D89C
:101A3000252A4ED0582A0DD0002A00F08A80BDE712
:101A4000732A38D002D8642A64D0B7E7752A51D0F7
:101A5000782AB3D1261D2068A2F1580462424FF0C3
:101A60001001624103ABFFF72BFF34460EE0582A0A
:101A700033D1A2F158035A4204F1040520685A41B7
:101A8000102103AB2C46FFF742FF354603AB009312
:101A9000404649463A465346FFF760FF8EE7632AC1
:101AA00005D1354640462178261DC8470CE00DD9A2
:101AB000732A16D1354623684046009349463A4674
:101AC0000023261DFFF74AFF344677E7252ACED1AB
:101AD000354640462521C84770E7002A39D03546AB
:101AE0006CE702D8642A24D0F9E7752A07D0782A4F
:101AF000BFD0F4E7261D20680A210022B2E7206843
:101B000004F1040B0A21002203ABFFF700FF354666
:101B10005C46BBE72068261D002808DA2D238DF8D7
:101B20000C3040420DF10D030A2100229BE703AB6C
:101B3000FAE7206804F1040B002808DA2D238DF859
:101B40000C3040420DF10D030A210022DDE703AB0A
:101B5000FAE707B0BDE8F08F014B19605860704795
:101B6000E40D00200FB407B5064904AB53F8042B6D
:101B7000486809680193FFF71AFF03B05DF804EBAA
:101B800004B07047E40D00200EB40FB505AB53F858
:101B9000042B0190064901A80393FFF708FF019B5E
:101BA00000221A7004B05DF804EB03B0704700BF68
:101BB000A519000808B50A4A0A4B0B498B4204D202
:101BC00012F8011F03F8011BF7E7084B084A93427C
:101BD00003D2002203F8012BF8E7FEF7F7FAFEE73D
:101BE000733F0008000000201805002018050020A1
:101BF00058160020F8B51E461A4B04461868BDF862
:101C0000185020F0F0001860186840F0B00018601C
:101C1000154B186840F48040186008461146134A76
:101C200000F07AF90746D8B930462946104A00F044
:101C3000CFF8074610B1871CBFB211E00D4821460E
:101C400000F027FA0B48214600F097F90A4B1A6872
:101C500042F480421A60094B1A6842F020021A606E
:101C60003846F8BD0408014018100240F00D00206D
:101C7000EC0D00200038014024E400E004E100E025
:101C800038B5144B1B6843B1134B1968134B1A68D2
:101C900012681170186800F09EF9114C2368BBB1EE
:101CA000104B1B68A3B1104D0B4A2868836813F8CA
:101CB000011B1160C26983601388013B9BB21380D2
:101CC00033B900F0E3F82B68DB691B8803B92360A4
:101CD00038BD00BF1400274204380140F00D002039
:101CE0009C0127421C002742EC0D002010B5044641
:101CF00000F03CF80128FBD0094A11680B6803F892
:101D0000014B0B6013689A8C59681B688A189342C0
:101D100003D300F01DF8012010BD002010BD00BF4E
:101D2000EC0D002010B50446084B19688B691A7831
:101D3000002AFCD18B8C4A682046D21800F020F88B
:101D4000044610B100F004F8EEE710BDEC0D0020E1
:101D500008B5044B186800F05EF910B9024B012277
:101D60001A6008BDEC0D00209C012742034B1B6844
:101D70009B691888003818BF01207047EC0D0020BF
:101D800018B40C6810F8013B2BB104F8013B9442E5
:101D9000F8D314F0000F18BF00200C6018BC704777
:101DA000084B01461A68084822F0F0021A601A68C7
:101DB00042F0B0021A60054B1A6842F480421A6081
:101DC00000F0A8B904080140003801401810024092
:101DD000F8B50C461746064600282FD001292FD902
:101DE000282000F061F9054600282BD0386006FB5A
:101DF00004F7B8B200F058F92861002822D06860D2
:101E0000E8602860A860C71963004FF6FE706F6134
:101E1000AE84EC8403EA000000F046F9286298B131
:101E2000A861E8610246002301339BB20021A3426E
:101E300022F8021BF8D1A8610020F8BD0220F8BDED
:101E40000320F8BD0120F8BD0120F8BD10B50446FF
:101E500000F03CF9E36843F4005343F00803E36007
:101E6000636943F08003636110BD4268838CD318BB
:101E700082694360023282614269934203D30369FB
:101E80004360036A8361436803607047C268838C60
:101E9000D318C269C3600232C2614269934203D35C
:101EA0000369C360036AC361C3688360704700004D
:101EB000F8B5134C06460D4608461146224600F07A
:101EC00034F90746D0B90F4B0F481A68314642F42F
:101ED00080421A6053F8042C42F0010243F8042CAB
:101EE00000F04BF9094B1D602368DA68084B1A6053
:101EF000084A43F8042CA12243F80C2C3846F8BDBC
:101F0000F00D002018100240003801405C00024033
:101F10006400024004380140F8B50C4617460646F6
:101F200018B321B3242000F0BFF8054608B3386089
:101F300006FB04F7B8B200F0B7F8E860C8B1686013
:101F4000A8602860C7196C844FF6FE7064002F618A
:101F50002E8404EA000000F0A7F8E86158B10023DD
:101F60006861A86103800020F8BD0220F8BD03204D
:101F7000F8BD0120F8BD0120F8BD10B5044600F001
:101F8000A5F8E36843F4005343F02403E36010BD75
:101F900041690346088860B1023158681A8C59615A
:101FA000196982188A425A6003D3DA685A60DA697A
:101FB0005A6170478369826802338361038CD31846
:101FC00002698360934203D3C3698361C3688360FA
:101FD00083680360704730B504680346224612F8F0
:101FE000011B0D29026081680AD18069551A05809C
:101FF000188C09188A4201D200226270184606E045
:10200000048C0C19A24205D38369521A1A80BDE8C8
:102010003040CFE730BD0168426808B58A1A92B2F5
:102020002AB183691A80FFF720FF002008BD012034
:1020300008BDF8B50C461746064610B319B328205C
:1020400000F032F8054600B3386006FB04F7B8B27A
:1020500000F02AF82861C0B16860E8602860A860D4
:10206000C719EC844FF6FE7064006F61AE8404EA19
:10207000000000F019F8286248B1A861E86100206A
:10208000F8BD0220F8BD0320F8BD0120F8BD0120F5
:10209000F8BD10B5044600F019F8E36843F40053A6
:1020A00043F00803E36010BD064A136819180331B2
:1020B000054821F003011160814234BF1846002019
:1020C000704700BF0C050020F41500200E4B10B522
:1020D00098420CBF0D4B0E4B19221B6889005343CD
:1020E000B3FBF1F16423B1FBF3F21201140903FB1A
:1020F000141109013231B1FBF3F303F00F0343EA8A
:10210000020292B2826010BD00380140D00D002062
:10211000D40D002010B50446FFF7D8FFE36843F460
:10212000005343F00803E36010BDF8B504461546BC
:102130000F46D1B1D8B12420FFF7B6FF0646C0B193
:1021400028602046FFF7B0FFF06090B130600019C2
:102150003061348477843846FFF7A6FFB06050B111
:10216000C7197060B7610020F8BD0220F8BD0320D8
:10217000F8BD0120F8BD0120F8BD10B50446FFF7F9
:10218000A5FFE36843F4005343F00403E36063698D
:1021900043F04003636110BD10B541184FF0FF33A9
:1021A00009E010F8012B03F0FF045440044A52F8F0
:1021B000242082EA13238842F3D3D84310BD00BF02
:1021C000A43A000810B5044661B90D480B3100F07F
:1021D000CFF91CB90B4B4FF400620AE04FF40062D8
:1021E000094B0AE00948072100F0C2F91CB9084B65
:1021F00080221A8010BD074B80221A6010BD00BFDC
:10220000001401401414014010140140000C01405E
:10221000140C0140100C014000487047A43E000817
:10222000034670B511480E46194600F089FB044676
:10223000D0B190F99030BBB900F02AFF0C4800F003
:1022400067FF012205466FF003013046134601F097
:1022500051F80646074800F05BFF46EA05050543CE
:1022600002D0073D84F89050204670BDB03E000873
:10227000D83E0008E43E000882B0019002E0019BD5
:10228000013B0193019B002BF9DC02B070477FB545
:10229000194B1A4A1968044691429CBF184A1A60A1
:1022A0001B680A22B3FBF2F20392FA22B3FBF2F2AA
:1022B00002922822B3FBF2F3019318B1072C28BF36
:1022C000072400E0062400F019FA00F0A9F910E054
:1022D0000C4B38261E800298FFF7CEFF0A4B0135C3
:1022E0001E600198FFF7C8FFA542F1D30398FFF7DE
:1022F000C3FF0025F8E700BFCC0D00203F420F00D0
:1023000000127A00141801401018014030B5002A5C
:1023100000F1040001F104011BDD0F4B1C6814F0F7
:10232000010F1C46F9D104331D6845F001051D60FD
:1023300031F8045C20F8045C2568ED07FCD41C68C7
:10234000013A44F001041C6031F8023C20F8023CE0
:10235000DDE7002030BD00BF0C200240044B054AE1
:102360001A6002F188321A60D86800F08000704765
:102370000420024023016745044B054A1A6002F11C
:1023800088321A60D86800F080007047442002400C
:10239000230167452DE9F843904605462C4C00265D
:1023A000266001F10209464539DA2A4B9D4217D9C8
:1023B000294B9D423CD8294F3B68D807FBD4FFF7F7
:1023C000DBFF002838D134233B60254B01221A6003
:1023D00039F8023C2B803B68D907FCD41F4B15E031
:1023E000B5F5000F2CD31F4F3B68DA07FBD4FFF77E
:1023F000B5FF48BB34233B601B4B01221A6039F800
:10240000023C2B803B68DB07FCD4164B1B68226820
:10241000013613432360023509F10209C3E723683B
:1024200013F0140F14BF6FF004000020BDE8F88310
:102430004FF0FF30BDE8F8836FF00100BDE8F8838E
:102440006FF00200BDE8F8836FF00300BDE8F88389
:10245000F4150020FFFF0708FEFF0F084C20024084
:10246000502002400C2002401020024070B52D4C3C
:10247000002323602C4B054698421ED92B4B9842D3
:1024800044D82B4B1A681E4612F0010FF9D1FFF702
:1024900073FF00283DD1274B02221A60264A15609F
:1024A0001A6842F040021A603268D107FCD41A68F8
:1024B00022F002021A601E4B1CE0B0F5000F2BD375
:1024C0001E4B1A681E4612F0010FF9D1FFF746FFA6
:1024D00028BB1B4B02221A601A4A15601A6842F088
:1024E00040021A603268D207FCD41A6822F0020255
:1024F0001A60124B1B68226813432360236813F091
:10250000140F14BF6FF00400002070BD4FF0FF30B7
:1025100070BD6FF0010070BD6FF0020070BD6FF014
:10252000030070BDF4150020FFFF0708FEFF0F0831
:102530004C20024050200240542002400C20024017
:10254000102002401420024038B5084D284600F003
:1025500021F8044605F1080000F01CF8044305F1D9
:10256000100000F017F8204338BD00BFF03E00080F
:102570000729C4BF04300839026889000F238B4043
:1025800022EA03030360026803238B4013430360C2
:10259000704700BF10B5027903680F2A33D88179DC
:1025A000032933D84179072933D802D10121914039
:1025B00019614179062904D10179012414FA01F144
:1025C0009982072A02D9083A0433D2B294000F2222
:1025D000A240196821EA02021A604279032A02D84D
:1025E000817939B918E0052A02D8043AD2B200E05C
:1025F0000222002141EA820212FA04F4186804431C
:102600001C60002010BD6FF0020010BD6FF00100D3
:1026100010BD4FF0FF3010BD6FF0030010BD000083
:102620002E4B1A6822F470221A601A6842F4403263
:102630001A601A6822F070421A601A6842F040521A
:102640001A605A6822F00F025A605A6842F0030278
:102650005A60234B1A6822F470021A601A6842F416
:1026600040121A6059681F4A01EA02025A6059680A
:102670001D4A41EA02025A601C4B1A6822F47F028A
:102680001A601A6842F408121A60194B1A6822F08C
:10269000704222F0F0021A601A6842F0405242F092
:1026A00030021A605A6822F00F225A605A6842F0CB
:1026B00003225A600F4B1A6802F0FF021A60196871
:1026C0000D4A41EA02021A605A6822F070425A60CA
:1026D0005A6842F040525A60704700BF00080140FB
:1026E000000C014000F0F0FF330303000010014034
:1026F000001401400018014000333333154A1649D5
:1027000030B510234FF480741448154D13600C80BD
:10271000202101802C604FF4007404801360114A62
:102720004FF480441380104B118002221A604FF442
:1027300080617E321A6099809C800C4B0421198044
:102740001A804FF4004243F8042C782243F8042CFA
:1027500030BD00BF1008014014080140140C0140B6
:10276000100C0140141001401014014014180140D5
:10277000094B38B91A6822F00F021A601A6842F041
:10278000030206E01A6822F00F021A601A6842F08B
:1027900004021A60704700BF00080140072901DDEC
:1027A0000430083989000F238B40026822EA0303B2
:1027B000032212FA01F103600368194301607047B4
:1027C00002238B4002F001028A4030B5C568C4681C
:1027D00025EA0303234313430729C36001DD0430C3
:1027E000083989000F238B40026822EA030308227C
:1027F00012FA01F1036003681943016030BD00BFA4
:10280000154A10B5136803F07F030360134B196872
:1028100001F07F014160116821F07F0111601968AA
:1028200021F07F0119600E490C68106810F0130F39
:1028300005D0D4F880000130C4F88000F5E749687D
:102840001A6812F0130F05D0D1F880200132C1F8B8
:102850008020F5E710BD00BF1464004014680040FC
:10286000F8150020054A036811680B431360D2F87D
:10287000001443680B43C2F80034704714640040EE
:1028800013B504466846FFF7BBFFA368013BA3608E
:102890000E4B9A6801329A602268126911698A4265
:1028A00019BF216810690021216015BF0861D9682E
:1028B0001969013116BF0131D9601961996A6846F9
:1028C00011619A62FFF7CEFF02B010BDF81500202B
:1028D00083690BB90362704700F10802026259680C
:1028E0000268C2F8841199680268C2F88811026807
:1028F000D968C2F88C111B68026843F00103C2F862
:102900008031704713B504466846FFF779FF236AA4
:1029100068461A69236A11691961084B996A11613D
:102920009A62D4F88420013AC4F884209A6801326B
:102930009A60FFF797FF02B010BD00BFF8150020A6
:102940002DE9F04706790546731E012B8A4602D908
:102950000020BDE8F0870120982100F04DFD0446DD
:102960000028F5D0012E994E40F02C81984B306014
:10297000376B2360DFF85482BFB10023C4F8843082
:10298000E362E363DAF804306879C4F88830DAF88F
:10299000083029792363DAF80C30236400F0E8FA70
:1029A00000B30A3884F8900009E1DAF80090B9F130
:1029B000000FE2D048461821C8F83090C8F80890B7
:1029C00000F01AFD08B9FE2398E03B4608F118080C
:1029D00001334B45C8F8100000F118028046CCD0F6
:1029E0001046F5E72268136803F480331360EB7A2E
:1029F0002268002B14BF4FF00113012313602168DC
:102A0000744B0A1D1068C00703D413F1FF33F9D2C9
:102A100002E00BB9FA2371E0AB7A6A7A013313440E
:102A20006D4A1268B2FBF3F32A68B3FBF2F3AA799A
:102A3000013B003218BF0122D207CA612068EA793F
:102A4000C169003218BF012241EA8272C261206866
:102A50002A7AC169013A02F0030241EA0262C261C4
:102A600020686A7AC169013A02F0070241EA02521B
:102A7000C2612068AA7AC169013A02F00F0241EAF4
:102A80000242C2612168C3F30903CA691343CB61DF
:102A90002268136823F0FE03136021682B7B0A6809
:102AA000003318BF012342EAC3130B6021680A6890
:102AB0006B7B003318BF012342EA83130B6021684C
:102AC000AB7B0A68003318BF012342EA43130B6053
:102AD0002268136843F0100313602268136823F020
:102AE0000103136023681A1D3A4B1168C90703D507
:102AF00013F1FF33F9D204E01BB9F92384F89030C5
:102B00005DE02A69696922F0030303F1604302F082
:102B1000030203F56443D20091401A68114319601F
:102B20002A69530903F1382340339B00186802F0E7
:102B30001F01012202FA01F101431960A969E86944
:102B400021F0030303F1604301F0030103F5644343
:102B5000C9008840196808431860A9694B0903F146
:102B6000382340339B00186801F01F0102FA01F17D
:102B700001431960296A686A21F0030303F1604385
:102B800001F0030103F56443C90088401968084354
:102B90001860296A4B0903F1382340339B0001F088
:102BA0001F018A4019680A431A6023689A68520113
:102BB00002D401229A60F8E704F1440373632046CB
:102BC000BDE8F0877060054BD2E600BFF815002025
:102BD00000640040808D5B00D40D00200068004040
:102BE000094B1B6B63B1094A0020136843F01303C0
:102BF0001360D2F8003443F01303C2F80034704776
:102C00004FF0FF30704700BFF815002014640040FB
:102C1000243035E6343033E6436A13B1436A186929
:102C2000704718467047436B33B1044A936B0133C6
:102C30009363436B1869704718467047F815002076
:102C40002DE9F74391460A68044650070F46984617
:102C50000AD4404B13403BB1D4F88C306FF00100E4
:102C60000133C4F88C3072E03B4E6846FFF7C8FD74
:102C7000B56A2DB1D4F88420D4F888309A4208DBA4
:102C80006846FFF7EFFD636D4FF0FF30013363657A
:102C90005DE02B696846B362B368013BB360FFF740
:102CA000E1FD97E80F0085E80F0000232B4A85F827
:102CB000159085F81680EB752B751368306803F056
:102CC0007F030093264B196801F07F010191116881
:102CD00021F001011160196821F0010119601168EA
:102CE000C90705D5D0F880100131C0F88010F6E78B
:102CF00071681A68D20705D5D1F880200132C1F871
:102D00008020F6E704F108031A6922B129681A69DC
:102D10001268914208D21A692A611D61236A2BB98F
:102D20002046FFF7D5FD09E01B69EDE7236A1B6923
:102D3000AB4201BF636E256201336366D4F8843011
:102D400068460133C4F88430FFF78CFD002003B0DF
:102D5000BDE8F083F8FF1F00F81500201464004060
:102D60001468004073B5064668460D461446FFF7E2
:102D700047FD36B1D6F884302360F36A6360F36BA5
:102D8000A36035B1D5F88430E360EB6A2361EB6B67
:102D900063616846FFF766FD014B986802B070BD3D
:102DA000F81500200268244B916810B50B400446CA
:102DB0002BB1214B9360036F0133036739E001218D
:102DC0009368916082691AB9C36F0B44C36710BDE1
:102DD000D9072ED59A0715D4190716D5436C013398
:102DE0004364036A1A69137D0133DBB21375036A06
:102DF0001B691A7D036A1B695B7D9A4216D9836C35
:102E000001338364FFF77EFD10E05A070BD5C36CD6
:102E10000133C364036A1B699B7DDB0706D5036D21
:102E200001330365EEE7C36D0133C3652046FFF749
:102E30004FFD23689B6810BD000101002DE9F74399
:102E400080460D4603681E682D4BD3F8009032680B
:102E5000D8F808302B4F1344DB6813F0030F49D028
:102E60006846FFF7CDFCBC6A1CB1AB68EA689342C8
:102E70000CDB3268D8F80830684613442022DA6048
:102E8000736D01337365FFF7EDFC36E022690133A2
:102E9000BA62BA68AB60013AC4F81490D8F804106A
:102EA000BA6032688B188A5822605A6862609B68E0
:102EB000A3603268D8F804301344DB68E3603268FA
:102EC000D8F8083013442022DA602B6813B92C603C
:102ED000246105E02B681B6923612B681C612C6051
:102EE0006846FFF7BFFC6B68002BB0D03046214628
:102EF0009847ACE7FB6B0133FB6303B0BDE8F0839D
:102F0000041000E0F8150020014B1868FFF74ABFD5
:102F1000F8150020014B5868FFF744BFF815002052
:102F2000024B034819682431FFF788BFF8150020C9
:102F3000083F0008024B034819683431FFF77EBF91
:102F4000F8150020143F0008024B0348596824314B
:102F5000FFF774BFF8150020203F0008024B03481C
:102F600059683431FFF76ABFF81500202C3F00087C
:102F7000F0B501298DB0844659D1304A02AE1368AC
:102F800006AF43F00073136052F8043C08AD43F001
:102F9000010342F8043C2A4B0AAC03F1080293E80F
:102FA00003008DE8030092E8030004AA86E803000A
:102FB00003F1100103C982E8030003F1180103C9FA
:102FC000BCF1010F87E8030003F1200103F128039E
:102FD00003C9EE4685E8030093E8030084E8030094
:102FE00018D00DD3BCF1020F24D11046FFF7D2FA4E
:102FF0002046FFF7CFFA134A136843F4C04313E0A7
:103000006846FFF7C7FA3846FFF7C4FA0D4B1A684F
:103010001A600AE03046FFF7BDFA2846FFF7BAFA11
:10302000084A136843F480431360002004E04FF023
:10303000FF3001E06FF001000DB0F0BD1C10024048
:10304000383F0008040001401B281CD80F4B1A68A9
:10305000D20704D41A6842F001021A60F6E7D9696F
:103060000122824021EA0201D961D9690A43DA6169
:10307000064B186810F0010004D01A6822F0010213
:103080001A60F5E770474FF0FF3070470066004068
:103090000A4B1A68D10704D41A6842F001021A6078
:1030A000F6E70022DA61054B1A68D20704D51A68E0
:1030B00022F001021A60F6E7704700BF0066004088
:1030C0001C281ED8104B1A6812F0010F1A6803D181
:1030D00042F001021A60F5E722F4F8521A601A6809
:1030E00062EA00221A60094B18605860064B1868A3
:1030F00010F0010004D01A6822F001021A60F5E70E
:1031000070474FF0FF307047006600401005002008
:10311000F0B5437A1B2B7ED8037A072B7ED899080B
:10312000C3F3400503F001043F4B1A68D20704D4EF
:103130001A6842F001021A60F6E73C4A477A1668BC
:10314000012303FA07F726EA07061660477A16688E
:10315000B94031431160467A52F8081C03FA06F66A
:1031600021EA060142F8081C467A52F8081C05FAC2
:1031700006F6314342F8081C467A52F8101CB34058
:1031800021EA030342F8103C437A52F8101C04FA77
:1031900003F30B4342F8103C437A0268ADB9817ADD
:1031A00003F1006303F6C843012991B24FEAC30358
:1031B00041EA024216D01A60437A4FF0FF3203F11F
:1031C000006303F6C843DB000CE003F1006303F681
:1031D000C843DB001A60437A426803F1006303F6D8
:1031E000C843DB005A601249447A0A680123A340AD
:1031F00013430B600C4A136813F0010304D01368E7
:1032000023F001031360F5E70A4A417A106881420E
:1032100007D9116005E04FF0FF30F0BD6FF00100FD
:10322000F0BD1846F0BD00BF0066004014660040C7
:103230001C660040441600200128F0B502D820B9D1
:10324000284B03E06FF00100F0BD274B1C68274BB3
:103250001D68ED0704D41D6845F001051D60F6E703
:10326000204D04F100636E6803F6C843DB0016B915
:1032700019606FF00301012A59602FD81C490126FB
:103280000F6806FA04F327EA03070F600F68A240ED
:103290003A430A6051F8082C1A4341F8082C51F8B7
:1032A000102C1A4341F8102C8A6813438B606A680B
:1032B0000C4B2AB100225A60344418B10A4B01E089
:1032C0005E6000E01C60094B186810F0010004D03B
:1032D0001A6822F001021A60F5E7F0BD6FF00200F3
:1032E000F0BD00BF4416002010050020006600401D
:1032F00014660040F0B5144607460E4685B00C4AE9
:1033000004F0010401AD1C2B4FEA840407CA28BF56
:103310001C2385E8070044F0030428460197029621
:103320008DF80C408DF80D30FFF7F2FE05B0F0BDC2
:10333000683F00082DE9F8430024074688461646F2
:1033400099462546B5420AD057F82510494504D07C
:1033500040460022FFF770FF04430135F2E72046A4
:10336000BDE8F883054B08B91A6003E0012804BFE3
:103370000348026001F001015960704744160020C3
:1033800010050020064A08B9136804E001280ABFA6
:10339000044B00231B68506840EA0320704700BFBD
:1033A00044160020100500200B4B10B51A680C685D
:1033B00094420AD14A6802F00F02012A05D10A7A22
:1033C000082A02BF054C064A14605B6813B1BDE8C9
:1033D0001040184710BD00BF4C1600200400FA052D
:1033E0000CED00E0024B1960024B83630020704734
:1033F0004C160020A933000840F208030A46C2F226
:1034000000030146186800F001B800BF38B501FBA1
:1034100002F1FDF7ADFE0446F8B150F8042C22F09D
:103420000302043A242A1AD8132A03460FD900218A
:1034300040F8041B031D1B2A616008D91D1D416053
:1034400059600833242A02BF6960596008331A465C
:10345000002142F8041B59605160204638BD00210C
:1034600000F002F8204638BD032AC9B270B408D86B
:103470002AB10346121803F8011B9342FBD170BC1A
:1034800070478218044601E004F8011B14F0030F92
:10349000FAD14FF0013303FB01F31FE044F8403C45
:1034A00044F83C3C44F8383C44F8343C44F8303C64
:1034B00044F82C3C44F8283C44F8243C44F8203C94
:1034C00044F81C3C44F8183C44F8143C44F8103CC4
:1034D00044F80C3C44F8083C44F8043C161B2546D0
:1034E00040343F2EDADC2C4607E044F8103C44F828
:1034F0000C3C44F8083C44F8043C161B25461034A8
:103500000F2EF2DC01E045F8043B541B032CFADCDF
:1035100001E005F8011B9542FBD3B0E70D0A0A0A4A
:103520002023232323202E2E2F4C44524649584536
:1035300044504F442F5452554E4B2F4C445220234D
:103540002323232030342F32302F3230313620766F
:1035500030200A0D00202068636C6B5F6672657115
:1035600020284D487A29203A202539750A0D002057
:1035700070636C6B315F6672657120284D487A29E3
:10358000203A202539750A0D002070636C6B325F7C
:103590006672657120284D487A29203A20253975B0
:1035A0000A0D00737973636C6B5F66726571202816
:1035B0004D487A29203A202539750A0D000A0D4315
:1035C0006F6E74726F6C2F73746174757320726593
:1035D00067697374657220285243435F43535229CD
:1035E000203A20253038780A0D00436F6E74726FD0
:1035F0006C2F737461747573207265676973746579
:103600007220285243435F43535229203A202530E9
:10361000387820416674657220524D564620777284
:10362000697474656E0A0D0A00436F6E74726F6C74
:103630002F73746174757320726567697374657232
:1036400020285243435F43535229203A20253038E3
:1036500078204166746572204C5057522077726909
:103660007474656E0A0D0A0043414E3120696E691B
:1036700074206661696C65643A204E554C4C20702C
:1036800074720A0D0043414E20696E6974206661B0
:10369000696C65643A2072657475726E20636F643C
:1036A00065203D2025640A0D002020692E652E200E
:1036B000756E6974233A2025640A0D00464C415307
:1036C000482053495A453A2025640A0D002875338D
:1036D00032292A70637263626C6B3A202530385845
:1036E0000A0D000A0D0A23232323204174206F664C
:1036F0006673657420253038582061646472657380
:1037000073202530385820697320626F67757320E5
:10371000232323230A0D0A00657869740A0077724F
:10372000626C6B3A202564202558202558202530CE
:10373000385820253038580A0D007772626C6B3A81
:10374000204341534520303A206E6F206E656564FA
:1037500020746F20777269746520626C6F636B0AE6
:103760000D007772626C6B3A204341534520323A28
:1037700020657261736520626C6F636B20626566A1
:103780006F72652077726974696E670A0D007772CF
:10379000626C6B3A204341534520313A207772697D
:1037A00074696E6720626C6F636B0A0D00777262DA
:1037B0006C6B3A207061795B315D20255820706117
:1037C000795B325D2025580A0D007772626C6B3A86
:1037D0002064656661756C743A2025640A0D0046A4
:1037E0004C41534820424C4B20535A453A202564C3
:1037F000204B0A0D00464C41534820484920414483
:1038000044523A20253038580A0D0043414E204991
:103810004427730A0D00434D443A20253038580A96
:103820000D005244203A20253038580A0D005752D6
:10383000203A20253038580A0D004E41434B303A8B
:10384000202564202558202564202558202530383F
:103850005820253038580A0D004E4143314B3A204C
:1038600025642025582025642025582025303858E7
:1038700020253038580A0D00706164642063726F2F
:103880007373656420626C6F636B20626F756E6426
:103890006172793A20253038582020706164643A8A
:1038A00020253038780A0D0053656E64204E414360
:1038B0004B3A20646C63206E6F7420383A20256484
:1038C0000A0D0053656E64204E41434B20737461B2
:1038D00072742061646472206F7574206F66207248
:1038E000616E67653A2025303858202558202530EC
:1038F000385820253038580A0D004861726420433A
:103900006F646564206164647265737320636865C5
:10391000636B206F75742D6F662D72616E67653AEB
:103920000072635F63726333323A20253038582067
:103930002530385820253038580A0D0053656E64FC
:10394000206372632D33323A20253038580A0D0037
:10395000583A20666C617368626C6F636B73697A46
:10396000653A2025582025582025582025580A0D2D
:103970000052343A207265616420616464723A20B6
:103980002558202558202558202558202558202501
:10399000580A0D00646F5F67657466726F6D6461CD
:1039A0006464726573733A2061646472206E6F742C
:1039B000204F4B3A20253038580A0D0047455441D6
:1039C0004444523A207265616420616464723A2012
:1039D00025582025582025582025582025580A0DDF
:1039E0000073656E64343A202558202558202558E8
:1039F0002025582025582025580A0D0047455420D9
:103A0000464C415348502061646472200020255880
:103A100000424F47555320434D4420434F44453ABD
:103A2000202558202530385820255820202530388A
:103A30005820253038580A0D0000000043000000CF
:103A400060000000200000001000000008000000DE
:103A50000000E0020100000008000000000000007B
:103A60000204040802020202020404040202020226
:103A70000C0000200202080A0C0E10121416181A6C
:103A80001C1E2020010001000100010001000100B6
:103A90000100010002000400080010004000800046
:103AA0000001000200000000963007772C610EEE46
:103AB000BA51099919C46D078FF46A7035A563E985
:103AC000A395649E3288DB0EA4B8DC791EE9D5E0AC
:103AD00088D9D2972B4CB609BD7CB17E072DB8E7AB
:103AE000911DBF906410B71DF220B06A4871B9F300
:103AF000DE41BE847DD4DA1AEBE4DD6D51B5D4F439
:103B0000C785D38356986C13C0A86B647AF962FD9D
:103B1000ECC9658A4F5C0114D96C0663633D0FFAEA
:103B2000F50D088DC8206E3B5E10694CE44160D5F0
:103B3000727167A2D1E4033C47D4044BFD850DD2DA
:103B40006BB50AA5FAA8B5356C98B242D6C9BBDBED
:103B500040F9BCACE36CD832755CDF45CF0DD6DCE8
:103B6000593DD1ABAC30D9263A00DE518051D7C88F
:103B70001661D0BFB5F4B42123C4B3569995BACF1A
:103B80000FA5BDB89EB802280888055FB2D90CC63B
:103B900024E90BB1877C6F2F114C6858AB1D61C1B4
:103BA0003D2D66B69041DC760671DB01BC20D298D3
:103BB0002A10D5EF8985B1711FB5B606A5E4BF9F60
:103BC00033D4B8E8A2C9077834F9000F8EA8099653
:103BD00018980EE1BB0D6A7F2D3D6D08976C6491BE
:103BE000015C63E6F4516B6B62616C1CD8306585D7
:103BF0004E0062F2ED95066C7BA5011BC1F40882B4
:103C000057C40FF5C6D9B06550E9B712EAB8BE8BF4
:103C10007C88B9FCDF1DDD62492DDA15F37CD38C7D
:103C2000654CD4FB5861B24DCE51B53A7400BCA37B
:103C3000E230BBD441A5DF4AD795D83D6DC4D1A4AD
:103C4000FBF4D6D36AE96943FCD96E34468867AD84
:103C5000D0B860DA732D0444E51D03335F4C0AAA23
:103C6000C97C0DDD3C710550AA41022710100BBE26
:103C700086200CC925B56857B3856F2009D466B96D
:103C80009FE461CE0EF9DE5E98C9D9292298D0B0A2
:103C9000B4A8D7C7173DB359810DB42E3B5CBDB74F
:103CA000AD6CBAC02083B8EDB6B3BF9A0CE2B603D0
:103CB0009AD2B1743947D5EAAF77D29D1526DB0485
:103CC0008316DC73120B63E3843B64943E6A6D0DD0
:103CD000A85A6A7A0BCF0EE49DFF099327AE000A1B
:103CE000B19E077D44930FF0D2A3088768F2011EAE
:103CF000FEC206695D5762F7CB67658071366C1945
:103D0000E7066B6E761BD4FEE02BD3895A7ADA1065
:103D1000CC4ADD676FDFB9F9F9EFBE8E43BEB71746
:103D2000D58EB060E8A3D6D67E93D1A1C4C2D838D0
:103D300052F2DF4FF167BBD16757BCA6DD06B53F36
:103D40004B36B248DA2B0DD84C1B0AAFF64A033675
:103D5000607A0441C3EF60DF55DF67A8EF8E6E31F4
:103D600079BE69468CB361CB1A8366BCA0D26F253D
:103D700036E2685295770CCC03470BBBB91602228A
:103D80002F260555BE3BBAC5280BBDB2925AB42B9F
:103D9000046AB35CA7FFD7C231CFD0B58B9ED92CB4
:103DA0001DAEDE5BB0C2649B26F263EC9CA36A7519
:103DB0000A936D02A906099C3F360EEB85670772D0
:103DC00013570005824ABF95147AB8E2AE2BB17B37
:103DD000381BB60C9B8ED2920DBED5E5B7EFDC7CBE
:103DE00021DFDB0BD4D2D38642E2D4F1F8B3DD6815
:103DF0006E83DA1FCD16BE815B26B9F6E177B06F10
:103E00007747B718E65A0888706A0FFFCA3B0666FC
:103E10005C0B0111FF9E658F69AE62F8D3FF6B6189
:103E200045CF6C1678E20AA0EED20DD75483044E2B
:103E3000C2B30339612667A7F71660D04D476949B9
:103E4000DB776E3E4A6AD1AEDC5AD6D9660BDF40CC
:103E5000F03BD83753AEBCA9C59EBBDE7FCFB2477F
:103E6000E9FFB5301CF2BDBD8AC2BACA3093B35364
:103E7000A6A3B4240536D0BA9306D7CD2957DE546D
:103E8000BF67D9232E7A66B3B84A61C4021B685D46
:103E9000942B6F2A37BE0BB4A18E0CC31BDF055ABF
:103EA0008DEF022D010601000400000000127A00CF
:103EB00020A107000100000001020D010001000027
:103EC00013000000700000001400000070000000EB
:103ED000150000007000000000000000000080FFDE
:103EE00006000000000000000000000002020000C8
:103EF000000C01400F00020000100140050002000C
:103F00000010014004000200F8150020B00100007C
:103F100000000000F8150020C001000004000000AF
:103F2000FC150020B001000000000000FC1500207E
:103F3000C001000004000000000801400C02030062
:103F4000000C0140090203000014014001020300BB
:103F5000000801400B070000000C014008070000AA
:103F60000014014000070000FCFFFFFFFCFFFFFF03
:043F7000000200004B
:103F740020050020000800000C00002000000000C4
:103F8400000000000000000000000000000000002D
:103F94000000000000000000000000003C3A00089F
:103FA400000000000000000000000000000000000D
:103FB40000000000000000000000000000000000FD
:103FC40000000000000000000000000000000000ED
:103FD40000000000000000000000000000000000DD
:103FE40000000000000000000000000000000000CD
:103FF40000000000000000000000000000000000BD
:1040040000000000000000000000000000000000AC
:10401400000000000000000000000000000000009C
:10402400000000000000000000000000000000008C
:10403400000000000000000000000000000000007C
:10404400000000000000000000000000000000006C
:10405400000000000000000000000000000000005C
:10406400000000000000000000000000000000004C
:1040740000000000FC000020FC00002004010020DF
:10408400040100200C0100200C0100201401002078
:10409400140100201C0100201C0100202401002028
:1040A400240100202C0100202C01002034010020D8
:1040B400340100203C0100203C0100204401002088
:1040C400440100204C0100204C0100205401002038
:1040D400540100205C0100205C01002064010020E8
:1040E400640100206C0100206C0100207401002098
:1040F400740100207C0100207C0100208401002048
:10410400840100208C0100208C01002094010020F7
:10411400940100209C0100209C010020A4010020A7
:10412400A4010020AC010020AC010020B401002057
:10413400B4010020BC010020BC010020C401002007
:10414400C4010020CC010020CC010020D4010020B7
:10415400D4010020DC010020DC010020E401002067
:10416400E4010020EC010020EC010020F401002017
:10417400F4010020FC010020FC01002004020020C6
:10418400040200200C0200200C0200201402002073
:10419400140200201C0200201C0200202402002023
:1041A400240200202C0200202C02002034020020D3
:1041B400340200203C0200203C0200204402002083
:1041C400440200204C0200204C0200205402002033
:1041D400540200205C0200205C02002064020020E3
:1041E400640200206C0200206C0200207402002093
:1041F400740200207C0200207C0200208402002043
:10420400840200208C0200208C02002094020020F2
:10421400940200209C0200209C020020A4020020A2
:10422400A4020020AC020020AC020020B402002052
:10423400B4020020BC020020BC020020C402002002
:10424400C4020020CC020020CC020020D4020020B2
:10425400D4020020DC020020DC020020E402002062
:10426400E4020020EC020020EC020020F402002012
:10427400F4020020FC020020FC02002004030020C1
:10428400040300200C0300200C030020140300206E
:10429400140300201C0300201C030020240300201E
:1042A400240300202C0300202C03002034030020CE
:1042B400340300203C0300203C030020440300207E
:1042C400440300204C0300204C030020540300202E
:1042D400540300205C0300205C03002064030020DE
:1042E400640300206C0300206C030020740300208E
:1042F400740300207C0300207C030020840300203E
:10430400840300208C0300208C03002094030020ED
:10431400940300209C0300209C030020A40300209D
:10432400A4030020AC030020AC030020B40300204D
:10433400B4030020BC030020BC030020C4030020FD
:10434400C4030020CC030020CC030020D4030020AD
:10435400D4030020DC030020DC030020E40300205D
:10436400E4030020EC030020EC030020F40300200D
:10437400F4030020FC030020FC03002004040020BC
:10438400040400200C0400200C0400201404002069
:10439400140400201C0400201C0400202404002019
:1043A400240400202C0400202C04002034040020C9
:1043B400340400203C0400203C0400204404002079
:1043C400440400204C0400204C0400205404002029
:1043D400540400205C0400205C04002064040020D9
:1043E400640400206C0400206C0400207404002089
:1043F400740400207C0400207C0400208404002039
:10440400840400208C0400208C04002094040020E8
:10441400940400209C0400209C040020A404002098
:10442400A4040020AC040020AC040020B404002048
:10443400B4040020BC040020BC040020C4040020F8
:10444400C4040020CC040020CC040020D4040020A8
:10445400D4040020DC040020DC040020E404002058
:10446400E4040020EC040020EC040020F404002008
:10447400F4040020FFFFFFFF00000200F40D002001
:084484000E0000000E00000014
:0400000508001BB51F
:00000001FF
