S00E0000706F645F76312E73726563CD
S31508000000204E002069AF00083901000831010008B8
S315080000103301000835010008370100080000000018
S315080000200000000000000000000000003901000880
S31508000030390100080000000039010008E9AF00088E
S315080000403901000839010008390100083527000878
S31508000050390100083901000839010008390100088A
S315080000603901000839010008390100081BC20008D7
S31508000070000000003901000875DA000800000000D9
S31508000080390100083901000839010008390100085A
S31508000090390100083901000839010008390100084A
S315080000A05B0E0008590E000800000000210E00082B
S315080000B06D29000800000000390100083901000810
S315080000C039010008390100083901000801BC000897
S315080000D000000000E5B000083901000839010008F1
S315080000E039010008552800083901000839010008B7
S315080000F039010008390100083901000839010008EA
S3150800010039010008390100083901000839010008D9
S3150800011071B20008000000004528000839010008EF
S3150800012039010008390100083901000800000000FB
S31508000130FEE7FEE7FEE7FEE7FEE7000008B500F08B
S3150800014092FE00F05BFD10B101280AD00BE0064BC9
S315080001501B78012B02D100F0EDFF04E000F03EFD14
S3150800016001E000F039FDFEE7A00E00200B4A10B5AD
S315080001700B8814889C4203D100230360436010BD9A
S3150800018002F10804502202FB034401339BB2032BFD
S3150800019088BF00230B800460426010BD1007002052
S315080001A0044B01221A7283F8582083F8A82083F892
S315080001B0F8207047100700201B4B70B51A881B4B98
S315080001C0B3F8481191422AD0B3F84A11A3F8482146
S315080001D041B91A88502000FB02321548D0E900457B
S315080001E0C2E904451C881425124805FB041546680F
S315080001F000680131800C89B203EB850540EA863038
S315080002000F29A861094AA3F84A1108D9611C89B2BD
S31508000210002503291180A2F84A5188BF1580D3F812
S315080002204C3103B1984770BDD81F00201007002035
S3150800023018120020D01F002010B503490446FFF706
S3150800024095FF204610BD00BF6008002010B5034981
S315080002500446FFF78BFF204610BD00BF620800204A
S3150800026010B503490446FFF781FF204610BD00BFBD
S31508000270640800200E4B05221A7083F8702083F854
S31508000280E02083F85021023A102183F8C02183F830
S31508000290D8210532A3F8F011A3F88C22A3F824126A
S315080002A0A3F8C022A3F85812A3F8F422704700BF97
S315080002B0680800202DE9F843AD4BAE4D1A88AE4CC0
S315080002C012B2002A03DD1A88013A1A80ACE0EB68FC
S315080002D004F5F870C4F8F4312B69C4F828326B6950
S315080002E0C4F85C320CF0E8F904F509700CF0E4F98E
S315080002F004F516700CF0E0F9B4F82232002B00F081
S315080003009380D4F81C320020DB13C4F89032D4F85A
S315080003105032A4F82202DB13C4F8C432D4F884326B
S3150800032004F52370DB13C4F8F8320CF0C5F904F5AC
S3150800033030700CF0C1F904F53D700CF0BDF9B4F855
S31508000340BE32002B70D0B4F8283300219BB2A4F833
S31508000350BE128A4F4BB9B4F82A3370229BB202FBFD
S315080003600343D7E90089C3E90289B4F82A03B4F834
S315080003702813382280B289B202FB0011D4F8B86279
S315080003800831361324F81160B4F82AC3B4F82813D0
S315080003901FFA8CFC89B202FB0C11D4F8EC02183156
S315080003A0001324F81100B4F82A83B4F828C31FFAF6
S315080003B088F81FFA8CFC02FB08C2D4F820132832EE
S315080003C0091324F81210B4F82A234FF0700C92B2CD
S315080003D00CFB0242D7E90089C2E90289B4F838233E
S315080003E0654B0132A4F83823B4F82823C4F82C63E3
S315080003F00132A4F82823B4F82823C4F8300392B2AB
S315080004000F2AC4F834130FD94FF00009A3F828931C
S31508000410B3F82A230132A3F82A23B3F82A2392B27F
S31508000420032A88BFA3F82A93D4F83C232968524B99
S315080004308A18C4F83C23D4F8402369688A18C4F893
S315080004404023D4F84423A9688A18C4F84423D4F866
S3150800045048230132C4F84823D4F84823B2F5803F2C
S3150800046023DB00224548C3F8482303F5E471D0E9A5
S315080004700067C1E90067D3F83C138913A3F8D011C4
S31508000480D3F840138913A3F8D211D3F84413C3F849
S315080004903C23C3F84023C3F84423B3F84C238913F9
S315080004A00132A3F8D411A3F84C23D4F850232968B1
S315080004B0314B8A18C4F85023D4F8542369688A182B
S315080004C0C4F85423D4F85823A9688A18C4F85823BA
S315080004D0D4F85C230132C4F85C23D4F85C23B2F563
S315080004E0806F23DB00222548C3F85C2303F5F071EF
S315080004F0D0E90089C1E90089D3F850138912A3F815
S31508000500E811D3F854138912A3F8EA11D3F858134B
S31508000510C3F85023C3F85423C3F85823B3F8602309
S3150800052089120132A3F8EC11A3F86023D4F86423E6
S315080005302968114B8918D4F86823C4F86413013262
S31508000540032AC4F868230CDD89100022C3F86C134B
S31508000550C3F86823C3F86423D3F870230132C3F8B9
S315080005607023D4F8743303B19847BDE8F88300BF05
S3150800057000000020E41D0020680800201812002052
S31508000580114B10B5B3F87813B3F82A2389B292B28F
S31508000590914203D100230360436010BDB3F878137A
S315080005A0B3F8784370220134A3F87843B3F8784354
S315080005B089B2A4B2032C02FB013102D90024A3F8A4
S315080005C078430160426010BD68080020054BB3F807
S315080005D0380380B220B10022A3F8382303F54B7004
S315080005E0704700BF680800200B4BB3F86013B3F8D8
S315080005F07A2389B292B2914203D100230360436001
S315080006007047B3F86023A3F87A2303F5EC73036005
S3150800061018234360704700BF680800200B4BB3F8E7
S315080006206013B3F87C2389B292B2914203D10023B6
S31508000630036043607047B3F86023A3F87C2303F58F
S31508000640EC73036018234360704700BF68080020F6
S31508000650074BB3F84C2312B9026042607047002278
S31508000660A3F84C2303F5E07303601823436070472F
S31508000670680800200B4BB3F86013B3F87E2389B2E1
S3150800068092B2914203D10023036043607047B3F8E6
S315080006906023A3F87E2303F5EC73036018234360F5
S315080006A0704700BF68080020027843780A2000FBDC
S315080006B00230A0F50470704738B505460930FFF7D3
S315080006C0F3FF0A4C206105F10B00FFF7EDFFE06030
S315080006D0E81DFFF7E9FF6061681CFFF7E5FF60604A
S315080006E0681DFFF7E1FF2060204638BDF00B0020AB
S315080006F0014B00221A807047200C0020094BD3F8C2
S315080007008810D3F88C20914206D0D3F88820C3F8F5
S315080007108C208022083301E00022134603604260E1
S31508000720704700BF200C002010B5074C802204F14A
S31508000730080004F1900104F0F1FDD4F88830013383
S31508000740C4F8883010BD00BF200C00202DE9F04108
S31508000750894D88B0B5F9003006461BB1012B40F02B
S31508000760FD800AE0022285F89020844A4FF434215D
S3150800077091600122A5F810312A807F4C68460AF05C
S31508000780ABFD6F4604F58A7397E8030083E8030018
S31508000790B5F81401002800F0E28004F1900093E80F
S315080007A0060000F04BFAC4F81C01002800F0AE80E1
S315080007B001F0A6FE01F07FFD704B4FF434229A60DB
S315080007C0B4F91031022B0ADC0A206421022200F057
S315080007D0EBF8B4F810310133A4F81031BEE0D4F8C0
S315080007E0203104F190000133C4F820310023C4F805
S315080007F0243100F09FFA624FC117C7E90601D7E90D
S3150800080006235BA1D1E90001121843EB0103C7E9EE
S315080008100623D7E90601CB02C20243EA5053C7E9C9
S315080008200623D7E90623D7E90801121A63EB010361
S31508000830C7E9022303A802F07DF8049AD4F8281120
S31508000840039B8A4207D0C4F82821D4F82C21C4F87F
S315080008502C319A1A7A63DFF84C81494CD8F8000093
S31508000860796B02F0E9F9474F002829D1D8F800102A
S3150800087006A8626B02F0BAFA069B079A012B1FD1EB
S315080008802265D5F82021252A17D93A78AAB93E4AE9
S31508000890216D12688A1AA264606B3C4AA16D82189F
S315080008A0521AE2643A4AE16CD06D411AD165394A66
S315080008B01370314AC2F8303102E00023C5F83031EE
S315080008C03B780BB902F0BAFA2B4C682204F1A00067
S315080008D02B4904F023FD304B1A88013292B2092ABB
S315080008E01A800BD900221A80FFF71EFF012384F80D
S315080008F03431A4F836318020083401E0002004465B
S31508000900B5F838310133A5F8383129E0B4F81411AF
S31508000910322924D0D4F818315BB120480AF0FCFA01
S31508000920D4F818010AF030FC1D480AF02DFC0AF02C
S3150800093041FCD5F8242100200132C5F824210F4AAC
S315080009400D4B9468C5F8200124B91C8002F010FAF2
S31508000950204605E00122A3F8362100E000200446DF
S3150800096070603460304608B0BDE8F081AFF30080AF
S31508000970C09D69B1FFFFFFFF200C0020E01F00208B
S31508000980181200202C0F0020AC120020009423FD22
S31508000990A00D00201513002002000020ACDA000884
S315080009A0ABE50008C80E002070B5044600201646C0
S315080009B00D460BF01BFD034B03221C605D609E6019
S315080009C01A7370BD600D002070B5204C257B264635
S315080009D0022D24D0032D28D0012D36D10AF018FB7C
S315080009E02369C31A002B30DC194B1D80A368013B11
S315080009F0002BA3600DDD0AF00BFB164B1A684FF4AB
S31508000A007A73B2FBF3F3626802FB130323610223D2
S31508000A1003E028460BF0EAFC0023237370BD0AF0B6
S31508000A20F7FA2369C31A002B0FDC0B4B01241C6051
S31508000A300AF0EEFA074B34731A684FF47A73B2FB6E
S31508000A40F3F3326802FB1303336170BD600D0020B7
S31508000A5014080140781500201008014070B51F4D94
S31508000A6004462B7D0E46012B16D002D3022B34D119
S31508000A702BE00AF0CDFA1A4B1A684FF47A73B2FBD8
S31508000A80F3F303FB1404174B1022AC611A800422FB
S31508000A9043F8042C012316E00AF0BAFAAB69C31A24
S31508000AA0002B1ADC104B10221A6004229A800AF0D6
S31508000AB0AFFA0B4B1A684FF47A73B2FBF3F303FBE6
S31508000AC016060223AE612B7570BD0AF0A1FAAB6952
S31508000AD0C31A002B01DC00232B7570BD600D0020A6
S31508000AE0781500201418014010180140F8B5334B4A
S31508000AF006461B6803F00F03042B03D0002303608C
S31508000B00436059E02E4AB2F910301446012B36D00C
S31508000B10022B3CD0002B4BD12A4AD36803B96382F7
S31508000B20294B1B6813F0010343D0D36823B96382AA
S31508000B30244B4FF4A042DA60244904232370D1E9F8
S31508000B400023C4E90223D1E9004562406B4052EA1A
S31508000B5003011B4F2CD17B6901337B610AF058FADC
S31508000B601B4B1A6842F21073B2FBF3F341F64C5270
S31508000B7002FB13030122BB613A8210231AE0124BCF
S31508000B801B6813F0010313D10221118211E00AF048
S31508000B903FFAA369C31A002B0ADC638A013363820E
S31508000BA01BB2042B02DD0B4B05221A80002323827D
S31508000BB000231F46376073603046F8BD00080140C1
S31508000BC0800D0020E01F00200808014018120020B0
S31508000BD078150020A20E002000F0ACBA08B500F087
S31508000BE0D9F9044B1B78012B04BF034A138001F083
S31508000BF06BFBF6E706130020A20E00201FB50B4B71
S31508000C000B4A1A6001F084FC01A801F04DFD094B5E
S31508000C101C78012C04D1084801F0E6FC204602E0C5
S31508000C2001F0A2FF002004B010BD00BF841200200E
S31508000C30A1C70008081200200400002037B56B463B
S31508000C4083E80600BDF800301146482B4DD1344CD8
S31508000C50E21F11F8015F12F8013B9D4247D14B1C78
S31508000C60A242F6D1411C002013F8012BA2F1300450
S31508000C70E4B2092C3DD80130062801F8012BF3D13E
S31508000C801A782C2A37D15A78412A36D19C782C2CB6
S31508000C9035D11C7BDA1C2C2C40D1D07A2C2830D1AB
S31508000CA0907D2C282FD1107E2C282ED1907F2C2891
S31508000CB02DD192F824202C2A2BD129332C3A13F83B
S31508000CC0010CA0F13004E4B2092C24D8885401326E
S31508000CD018460133062AF2D103782C2B1DD1007B46
S31508000CE000280CBF01200E2018E0002016E0012085
S31508000CF014E0022012E0032010E004200EE0052094
S31508000D000CE007200AE0082008E0092006E00A208F
S31508000D1004E00B2002E00C2000E00D203EBD00BFE1
S31508000D20B8DA000843780278303B303A0A2000FBEC
S31508000D300230704710B504468CB00530FFF7F2FF55
S31508000D400190E01CFFF7EEFF0290601CFFF7EAFF38
S31508000D500390E01DFFF7E6FF049004F10900FFF792
S31508000D60E1FF0138059004F10B00FFF7DBFF643063
S31508000D70069001A804F0A0FC0CB010BD204B1A6820
S31508000D8022F470021A601A6842F430021A601D4B87
S31508000D901A6842F080021A601B4A136843F400631B
S31508000DA043F001031360194B1A6842F0C0021A6037
S31508000DB0174B1A6842F001021A6053F81C2C42F0CD
S31508000DC0010243F81C2C53F8142C42F0010243F894
S31508000DD0142C53F8342C42F0010243F8342C0D4BF2
S31508000DE01A6842F040521A600B4B1A6842F00062C9
S31508000DF01A600A4B1A6842F002021A60704700BF6E
S31508000E00041001402C6C00401810024004000140F8
S31508000E10342C014018E400E000E100E00C2C01400D
S31508000E200B4B1A680B4B92B218685968511A89B25B
S31508000E30091819605A609A680132B2F5007F9A60FB
S31508000E4004DB19680022D9609A601A60704700BFEF
S31508000E50342C0140BC0E0020FEE7FEE7FEE700BF8B
S31508000E6008460AF075B937B5244809F053FE0BF061
S31508000E7083FA0BF013FA224B00241A68012042F079
S31508000E8080521A601F4B204D1C600BF0AFFA1F4BA7
S31508000E901F491B68204603F001032B700AF035F83A
S31508000EA020460AF081F80BF095F91A4C20600BF0F1
S31508000EB07DF92B7860600BB101F0B6FA164B01226A
S31508000EC01A7004246021302392184FF4E1300094FC
S31508000ED00AF0C2F86021022230234FF4965000949B
S31508000EE00AF080F90D480AF04FF90AF063F90C4840
S31508000EF003B0BDE830400BF099BB00BFB0E5000871
S31508000F001C100240A0000E42A00E00200808014056
S31508000F10610E0008A40E002000120020B9DA0008AD
S31508000F20A00D002070B517480BF06AF90BF00AF906
S31508000F30154C164B2568B5FBF3F505EBC505451BA2
S31508000F400AF066F8401B0028FADC0BF009F90BF0EA
S31508000F5007F90E4B2468B4FBF3F4502303FB14047F
S31508000F600AF056F8001B0028FADC0AF051F8084B7C
S31508000F701B68C31A002BF8DC0248BDE870400BF06A
S31508000F80FDB800BFE41D00207815002040420F0080
S31508000F90A40E002008B506480BF032F9FFF7C2FF89
S31508000FA0044A054B1A60054A054B1A6008BD00BF7E
S31508000FB0E41D0020B5020008BC1200203D2D0008E3
S31508000FC00020002010B50AF063FF20200AF030FF49
S31508000FD0134C2378002BFBD10F200BF001F8237854
S31508000FE0002BFCD110200AF069FF2378002BFCD1D6
S31508000FF008200AF063FF2378002BFCD130200AF082
S315080010007DFF2378002BFCD138200AF077FF237860
S31508001010002BFCD10120BDE810400AF0B3BF00BF89
S31508001020D01D0020214B4FF4806210B51A60204B6A
S3150800103048F200021A801F4B4FF480721A6009F0BA
S31508001040E7FF1D4B1D4C1A6842F21073B2FBF3F30F
S3150800105041F2883202FB13036360FFF70BF9FFF7CF
S315080010609FF801F001FCFFF789FE09F0D1FF6368DC
S31508001070C31A002BF9DC0AF0D8FC0BF023FE02F0A9
S3150800108043F80F480BF0BCF8FFF74CFFFFF79AFF41
S315080010900C4A0D4B1A600D4A0D4B1A600D4A0E4B41
S315080010A01A600E4A0E4B1A6010BD00BF101401409C
S315080010B0141801401008014078150020A40E0020DD
S315080010C0E41D00203D2D0008DC0B0020B5020008B9
S315080010D05C080020B9010008DC1F0020B9C500081B
S315080010E00020002013B50BF0D1FC01280E4B02D1CD
S315080010F01A68013205E01A6859688A4202DD5A60A0
S3150800110000221A60094BB3F900405CB9084B6846DF
S315080011101B5998470199009809B10BF071FD0434E1
S31508001120142CF3D11CBD00BFE00E0020A20E002037
S315080011301000002037B51F480AF026F80AF03AF8DA
S315080011401D4A1E4B1E4C5A6001F00EFDFFF76AFF42
S3150800115009F05EFF2060256809F05AFF281A6060CA
S3150800116009F056FFA26863682060934284BF144A58
S315080011709360E268124B511CE16012498A4202D917
S3150800118000229A60DA6001F0AAFE01F04DF9012802
S3150800119001D100F097F86846FFF7D8FAFFF7A2FFE3
S315080011A0FFF712FC19204FF47A71FFF757FC01F08C
S315080011B08BF8D0E7D5DA000800006504E01F0020A8
S315080011C0EC0E0020A086010043780278303B303AC6
S315080011D00A2000FB0230704770B50B78202B4FF0C1
S315080011E000030BD10C4611F8012B202A02D0182B2C
S315080011F006DD02E001331A2BF4D10023036022E056
S315080012002D2A18BF214614BF00264FF0FF360023AB
S315080012101C4606E0303AD5B2092D12D80A2505FB38
S3150800122003230D4611F8012B202A08D00A2A06D0D6
S315080012300D2A04D01AB101341A2CEBD101E0182C6E
S3150800124003DD00220260436070BD06B15B420560A3
S31508001250436070BD10B504468CB00A30FFF7B4FF82
S31508001260019004F10800FFF7AFFF0290A01DFFF7F9
S31508001270ABFF0390201DFFF7A7FF0490A01CFFF704
S31508001280A3FF013805902046FFF79EFF64300690BD
S3150800129001A804F011FA0CB010BD10B5044609F007
S315080012A097FF012805D0204609F06EFF09F082FF56
S315080012B0002000B210BD024B00221A80704700BF02
S315080012C0FC0E0020F0B59A4C85B0B4F90250012DF9
S315080012D000F0AD80022D00F0BE80002D40F0D780D2
S315080012E0684609F0A3FE6E46231D96E8030083E8C8
S315080012F00300A668002E00F0CD80A28810E0735D7A
S31508001300182B00F091801B2B00F08E80082B00F024
S315080013108B80152B00F08880032B00F08580013523
S315080013209542ECDBFBE1012200E00022814B1A70BA
S315080013307AE0022001F054FF76E029467E4809F05B
S31508001340EBFD09F037FF691C02A8FFF745FF029974
S31508001350039D99B16B1E3E2B00F21C82F56002A814
S31508001360FFF73AFF029B039A002B5BD03261734862
S31508001370294609F0D1FD09F01DFF55E0704809F02E
S3150800138003FF09F017FF4DE0B388192B47D9681CEE
S31508001390FFF760FF0546002844D0B0680023C2184E
S315080013A0527B302A05D00D30FFF754FF034628B983
S315080013B038E001330C2BF2D10C3B01E0854202D90F
S315080013C0A561E36101E0E561A061594DA66905F1F2
S315080013D0180003F0ADFC314602465A4809F09CFD58
S315080013E009F0E8FE05F11C00E66903F0A1FC3146A8
S315080013F00246554809F090FD09F0DCFEE26912B193
S31508001400524BD318EB61A369504951485918E26900
S31508001410A16109F081FD09F0CDFE722303E00023E6
S31508001420337501E000232375012262802FE001F065
S3150800143067F809F0CDFE01282BD0464809F0A4FE2E
S31508001440A06809F0A1FE444809F09EFE09F0B2FE24
S315080014500223638010E001F053F8257D75B93F48F3
S3150800146094F8201009F058FD09F0A4FE3C48FFF74F
S3150800147014FF01280DD065802E460BE0394809F087
S3150800148083FE09F097FE00226280267D02E0002690
S3150800149000E00646B4F90020254D632A33B200F071
S315080014A0048111DC032A00F0EE8004DC0AB3012A69
S315080014B040F0308163E0612A00F0138100F308816F
S315080014C0042A40F02781BBE0672A00F0E38006DCA7
S315080014D0652A00F0BC80662A40F01C810AE1722A5F
S315080014E000F09180732A00F0BF806D2A40F01281C7
S315080014F075E0B5F9223013B1012B38D102E0AB847F
S3150800150001236B8409F064FE002840F00381B4F9D6
S315080015102430074D122B29DC134A52F8230009F010
S3150800152033FE09F047FEAB8C0133AB84F2E000BF13
S31508001530FC0E002015130020E4DA0008EDDA000896
S3150800154008DB000823DB000831DB0008C09D69B111
S315080015503FDB0008AAE50008ABE5000858DB0008F1
S3150800156061DB000891DB0008BCE500086884002000
S3150800157001222280E084E061A06101F031FE33B2ED
S31508001580613B122B00F2C680DFE813F0230021002E
S315080015901F002500170027001D00C400C400C40052
S315080015A0C400C4001300C400C400C400C40015006D
S315080015B01A006D2302E0722203E065232380EBE024
S315080015C073222280E8E06723F8E76322F9E76223BB
S315080015D0F4E76122F5E77223F0E76622F1E7782B54
S315080015E000F09B807A2B03D1AB6ADB43AB6203E046
S315080015F0702B01D16F3BE36200F082FF05B0BDE8B6
S31508001600F04000F0D9B8782B03D1644B00221A8039
S3150800161083E02A2B04D100F023FE04232B80BBE0B1
S3150800162000F06EFF00F0DCFB012840F0B5804FF0BB
S31508001630FF304FF0FF310BF077F900222A80ABE03C
S315080016400D2B01D00A2B65D17223238062E0544802
S31508001650FFF723FE074600285CD14FF0FF314FF015
S31508001660FF300BF061F909E04E4B01221A804E4813
S31508001670FFF713FE074618B900F026FE2F8049E04B
S3150800168003232B8046E04848FFF707FE0746002855
S3150800169040D1F1E7782B454D02D100222A803CE063
S315080016A000F02EFF01232B800DE0782B3F4E04D14E
S315080016B00023338085F830302FE000F021FF012326
S315080016C0338085F8303005B0BDE8F04000F06EBADA
S315080016D0782B22D000F014FF05B0BDE8F04000F0EA
S315080016E0E1B9782B19D000F00BFF05B0BDE8F04042
S315080016F000F034B9782B05D100222A80002001F0A9
S315080017006FFD0AE000F0FCFE012005B0BDE8F040E0
S3150800171001F066BD36B2782E3ED100234EE700F0C2
S31508001720EFFEA568224E2B78237584F820302B7897
S31508001730672B3FF479AE12D8632B0AD8612BBFF416
S3150800174073AE0D2B3FF470AE2A2B3FF46DAE0A2B09
S315080017501DE0652B3FF468AE3FF6EFAD14E6732B3C
S3150800176009D8722BBFF460AE6D2B3FF45DAE702BBB
S315080017707FF458AED7E5772B3FF4D7AD03D8762B51
S315080017807FF450AED5E5782B3FF44EAE7A2B7FF436
S3150800179049AE49E60748F2E505B0F0BDE21100207A
S315080017A097DB0008A20E0020CDDB00085A0D0020AA
S315080017B0FC0E0020DCDB00082DE9F7435B4C238890
S315080017C00BB910202080B4F96050584E012D13D063
S315080017D0022D2CD0002D40F0A6806846FEF736FD77
S315080017E0019A009B002A00F09E800121A6F862500B
S315080017F07366A6F8601096E0B6F86220736E043237
S3150800180053F82230304673600AF080FF58B9B6F8AC
S31508001810623001339BB20F2BA6F8623040F2838008
S31508001820A6F860007FE00222A6F860207BE009F0B7
S31508001830CFFC012877D0356D736D3D49ED0B45EA30
S3150800184043453C4A8B6B8846ED181368914673B13D
S31508001850326FD6E91A01401941EBE5710132C6E942
S315080018601A013267D31702F0A5FD706704E000205D
S315080018700021C6E91A013367676FD8F8342042F2A7
S315080018801073E81B80FB0301D31702F093FD2A4A65
S31508001890274E1368804673B100231360B26B27483E
S315080018A0D71B224AB7635367254B01221A7009F0E2
S315080018B06BFC09F07FFCB8F1000F4FF47A720EDA70
S315080018C0C8F1000898FBF2F102FB118221B91D4804
S315080018D0114609F021FB09E01B48494204E098FB40
S315080018E0F2F102FB1182194809F016FB184829463D
S315080018F009F012FBD9F8003023B11648216F626F40
S3150800190009F00AFB144809F03FFC09F053FCB4F847
S31508001910623001339BB20F2BA4F8623003D9034B14
S315080019200021A3F86010BDE8FE8300BF300F002039
S31508001930A00D0020240F0020280F002016DF000825
S315080019401513002035DF000845DF00084FDF0008C3
S3150800195035E0000859DF0008CADB00082DE9F04128
S315080019603C4CB4F90030A046012B14D0022B1FD0F2
S31508001970002B6CD1FEF72AFE6060002867D0364B34
S31508001980B3F900200AB9012200E0022222800122CE
S315080019901A80BDE8F08109F01BFC012857D02F48B2
S315080019A009F0F2FB09F006FC02232380BDE8F0816A
S315080019B009F00EFC01284AD0294F002600240025EC
S315080019C0D8F804309A5957F8043FD31A4FF47A7264
S315080019D05343F96893FBF1F303FB03F1641845EBF2
S315080019E0E175002B0DDA5B4293FBF2F102FB113233
S315080019F021B91C48114609F08FFA09E01A484942EC
S31508001A0004E093FBF2F102FB1132184809F084FA5C
S31508001A1004360C2ED4D12946204602F017FB01F0D5
S31508001A202FFF01F049FC02F019FA4FF47A7390FB84
S31508001A30F3F1024603FB11220C4809F06DFA0C4833
S31508001A4009F0A2FB09F0B6FB0022A8F80020BDE8C1
S31508001A50F08100BFA80F0020220F002062DF0008D7
S31508001A60B80D002039DF000896DF0008A1DF00085E
S31508001A70CADB00084FF47A73B0FBF3F1024603FBA6
S31508001A801122014809F048BAACDF0008642390FB2C
S31508001A90F3F1024603FB1122014809F03DBA00BFE3
S31508001AA0B7DF0008F7B5354CB4F90030012B12D072
S31508001AB0022B1BD0002B60D109F08AFB01285CD0D1
S31508001AC02F4BB3F900200AB9012200E00222228036
S31508001AD001221A8051E009F07BFB01284DD02948E4
S31508001AE009F052FB09F066FB022307E009F070FBD8
S31508001AF0012842D0224BB3F900300BB923803CE0D1
S31508001B006846FEF771FD019A009B002A35D01E4DE6
S31508001B105A8A6E686360AF689B8A56435F43360C81
S31508001B2030463F0CFFF7A6FF3846FFF7A3FFB81B62
S31508001B30FFF7A0FF636815481E8A314609F0ECF9DD
S31508001B4030460AF05FFD064668693018FFF79EFFC3
S31508001B500F4809F019FB6B69F61806EBC60605234C
S31508001B60B6FBF3F000F54860FFF790FF094809F067
S31508001B700BFB09F01FFB00222280FEBDB00F0020E0
S31508001B80220F0020C0DF0008A00D00200FE000088B
S31508001B9015E000080AE000080246D10A0248520584
S31508001BA0520D09F0B9B900BF18E00008F7B5424C64
S31508001BB0B4F900302546012B17D0022B1CD0002B78
S31508001BC079D13E4BB4F902101A8812B2914272D0FA
S31508001BD01B8863803A4BB3F900200AB9012200E05A
S31508001BE00222228001221A8065E009F0F1FA012812
S31508001BF061D0022323805EE009F0EAFA01285AD070
S31508001C00304E3378012B01D1632000E067202E4C3B
S31508001C1009F09EFA206AFFF7BFFFE168A268B4F8E8
S31508001C2066302A481BB209F077F9294B2948196802
S31508001C30626B09F071F9284B216D1A68274809F07B
S31508001C406BF9E16D264809F067F9216E226E642367
S31508001C5092FBF3F791FBF3F103FB1722214809F0F6
S31508001C605BF9A16D2048E26C09F056F91F4B1B6819
S31508001C70252B03D933780BB92A2000E0202009F058
S31508001C8067FA1B4B1B48996ADA6AC90A41EA425144
S31508001C90019109F041F9019A174B02A8D31840F8A7
S31508001CA0043D03F045F80146144809F035F909F0F2
S31508001CB081FA00222A80FEBDB80F0020580D0020A8
S31508001CC0220F00202C0F00201812002022E0000806
S31508001CD0C80E002030E00008B412002039E00008E1
S31508001CE00FE0000842E000083AE00008400D002036
S31508001CF0B00C00204BE000084062964E51E0000808
S31508001D00064A0B0910B501F00F01D45C0346525C74
S31508001D1003F8014B4270581C10BD00BF08E60008C6
S31508001D2010B50C46090AC9B2FFF7EAFFE1B2BDE8E9
S31508001D301040E5E707B5024606480B460178994282
S31508001D4006D000918030044909F0F8F8032000E035
S31508001D5002200EBDC00F002057E0000838B54FF42A
S31508001D607A73B1FBF3F20D460446044903FB12539A
S31508001D7009F0E4F804F1090038BD00BF7FE0000867
S31508001D8038B5642391FBF3F20D460446034903FB79
S31508001D90125309F0D3F804F1090038BD8BE00008A6
S31508001DA0F8B5026841680C4BD20A42EA4152C3F8B8
S31508001DB0002203F580730446042501331846615D45
S31508001DC0FFF79EFF013D0346F8D2044BD4E90067AE
S31508001DD0C3E90067F8BD00BFC00F0020C811002086
S31508001DE02DE9FF47B74CB4F91032042B00F21D82D7
S31508001DF0DFE813F005001B024401FF010C0209F09D
S31508001E00E7F9012800F01182AE4D802128460AF034
S31508001E1049FE2946F1E98623121843EBE0730028A8
S31508001E200646C1E9002340F3FE8150280ED006DCA1
S31508001E30102800F0A580182840F0ED8058E070289A
S31508001E4000F0B480802840F0E68033E00121FFF7F7
S31508001E5071FF312385F80031804605F10800FFF748
S31508001E609FFF05F10C0706464C35974B57F8042F8C
S31508001E70986B801842F2107280FB02015A6BD317D6
S31508001E8002F098FA81464FEA29413046FFF748FFA3
S31508001E900FFA89F1FFF744FFAF420646E5D103463C
S31508001EA00A2203F8012B0332427000205870A4F866
S31508001EB01082BBE10221FFF73DFF322385F800318E
S31508001EC0064605F11000FFF76BFF0023E21852786B
S31508001ED0C25401330C2BF9D1023B0D220373427312
S31508001EE000F10D0300205870764BA3F810629DE1AF
S31508001EF00321FFF71FFF744C3323074685F800318B
S31508001F0005F10800FFF74CFF6B8A6668A2685E4316
S31508001F10AB8AB60C02FB03F831464FEA9848FFF73E
S31508001F201DFF4146FFF71AFFC6EB0801FFF716FF2C
S31508001F302E8A6649B6083246804608F0FFFF3046C4
S31508001F400AF060FB6169064608F108087118404600
S31508001F50FFF716FF6369F61806EBC6060523B6FBF8
S31508001F60F3F101F54861FFF70BFF0A22034603F870
S31508001F70012B0332427000205870A5F8107255E103
S31508001F800421FFF7D7FE3423044685F8003105F10E
S31508001F900800FFF705FF0A22034603F8012B033260
S31508001FA0427000205870A5F810423FE10521FFF75E
S31508001FB0C1FE352385F80031804605F10800FFF794
S31508001FC0EFFE434F002557F8043F0026B7F80C905C
S31508001FD09A4663199B19198A0FFA8AF3C91A4FF494
S31508001FE07A7359430FFA89F391FBF3F109B2023672
S31508001FF0FFF796FE202EECD12035602DE3D103465F
S315080020000A2203F8012B03324270002058702D4B28
S31508002010A3F810820AE194F820322A4D032B00F225
S315080020200481284610F8803B3246009329494FF030
S31508002030FF3308F083FF2F2305F580707F2EB4BF8A
S31508002040B0464FF07F0885F8003100272E1D013075
S3150800205004E016F8011BFFF753FE0137A8F1030346
S315080020609F42F6DB03460A2203F8012B033242702D
S31508002070002058700323A4F81032D7E009F0A8F816
S31508002080012800F0D280144E3268002A00F0AF8092
S31508002090B4F922320B4D022B56D004DC5BB1012B6E
S315080020A040F0BD802DE00A2B33D01E2B79D0032BB0
S315080020B040F0B5807EE0D5F800329A420ED3012270
S315080020C03FE000BFC00F0020A00D00200FE0000871
S315080020D0B80D002057E00008140F0020554809F0F5
S315080020E053F83268544B04A8D31840F8043D02F05C
S315080020F01FFE0146514808F00FFF09F05BF802235E
S3150800210072E04FF0FF304FF0FF310AF00DFC0A2263
S3150800211017E0D5F800329A4201D31E2364E04548F9
S3150800212009F032F83268444B04A8D31840F8043D45
S3150800213002F0FEFD0146414808F0EEFE09F03AF8C5
S315080021400222A5F822226AE0D5F800329A4204D380
S3150800215005F5807009F018F816E0D5F82422511C08
S31508002160C5F8241240F201618A420FDD0022C5F843
S315080021702422314A04A89A1840F8042D02F0D8FD02
S3150800218001462E4808F0C8FE09F014F82C4B1A68C8
S31508002190D4F800329A4242D32A4B0322A3F82222C9
S315080021A03DE009F015F801283FD0274808F0ECFF74
S315080021B0326808E009F00CF8012836D0234808F000
S315080021C0E3FF1F4B1A681C4B04A8D31840F8043DBC
S315080021D002F0AEFD01461E4808F09EFE08F0EAFF32
S315080021E01C4A002313803360A5F8223217E01A48E8
S315080021F011E008F0EDFF012817D0184808F0C4FFD1
S3150800220008F0D8FF0222A4F810220EE008F0E0FF3A
S3150800221001280AD0114808F0B7FF08F0CBFF0023C1
S31508002220A4F8103201E0012000E0002004B0BDE867
S31508002230F08700BF95E000084062964E51E000081E
S31508002240180F0020C00F0020BFE00008FDE00008BE
S31508002250F5E00008FC0E0020C01000204010002009
S315080022600B4B07B5D3F80822D3F80C12D20A094B40
S3150800227042EA4152D31802A840F8043D02F058FD3C
S315080022800146054808F048FE08F094FF0EBD00BF59
S31508002290C00F00204062964E51E000084FF47A7352
S315080022A0B0FBF3F1024603FB1122014808F034BEE5
S315080022B0ACDF00087047024A024B5A60704700BFFD
S315080022C000006504E01F00202DE9F7434C4CB4F9E3
S315080022D000301BB1012B40F08F806CE06846FEF79A
S315080022E09DF9019B009A002B36D0464B518A5D68B2
S315080022F062604D43928A99682D0C01FB02F8DA68F0
S315080023004FEA18489542C5EB080799463E4E04D24F
S3150800231002223E48328008F037FFD9F80C309F4237
S3150800232004D202233A48338008F02EFFB6F900306B
S31508002330022B11D12846FFF7B1FF4046FFF7AEFF43
S315080023403846FFF7ABFF334808F01EFF08F032FFA8
S3150800235008F03EFF0128FBD06846FDF781FF019B88
S31508002360009ACBB10023106944F61F61884204DC49
S315080023700022102B22810FD104E001339BB20432D4
S31508002380102BF0D125896B1C23811BB2042B03DD8E
S31508002390FFF791FF1A4B1D811F4B5B6823B11A4B40
S315080023A0B3F90030002B27DD0123238003B0BDE8F5
S315080023B0F04300F0D5BE0AF09FFA0AF067FB012841
S315080023C01AD0164B00221A60154BB3F9003093B990
S315080023D000F07EFB0C4B134CB3F90030022B01D1F5
S315080023E0033B2360206800F029F9206803B0BDE8A4
S315080023F0F0430AF023B8FEE703B0BDE8F08300BF58
S31508002400E8110020A00D0020A20E002023E10008FC
S315080024104CE10008CADB0008E01F0020BC120020BF
S31508002420801200202400002037B52E4C2378032B79
S3150800243053D8DFE803F0021437472B4B80221A8063
S3150800244008F0E6FD294B1A6842F21073B2FBF3F363
S31508002450322202FB13036360012323703DE008F078
S31508002460D7FD62681F4B821A002A36DC1A7A92B99F
S3150800247001321A720323009340210132FD334FF4CF
S31508002480E13008F0E9FD02224FF49650602120233E
S31508002490009208F0A7FE164B4FF416221A60022384
S315080024A023701CE0134B1B78CBB1114B1B68002B18
S315080024B015DC114B80221A6001200323237009F0D2
S315080024C095FF0AE00D4B186810F0010008D00025AA
S315080024D02570FEF7F0FE284602E0002000E0012005
S315080024E03EBD00BFF81100201414014078150020E5
S315080024F0E01F0020540D0020101401400808014078
S31508002500024B4FF416221A60704700BFE01F0020E6
S315080025102A4B10B51A6848F2011142F0C0521A60E7
S31508002520274B1A6842F480721A60264B264A1868A6
S31508002530146804EA01038B42244B0DD01160012272
S315080025401A70214A126812F0010FFAD05A6801323D
S315080025505A6001229A6005E002221A709A605A6847
S3150800256001325A601A4B1A6822F008021A60184B90
S315080025701B6813F0080FFAD0124B1A6842F08072E3
S315080025801A60144B01221A60114B1B6813F0200FB6
S31508002590FAD0114B1A6842F000521A600F4B1A68AB
S315080025A042F008021A600E4B1A6842F460021A607A
S315080025B00C4B1A6842F480021A6010BD1C100240C7
S315080025C0007000402410024020100240081200202B
S315080025D0042800400028004000E400E000E100E094
S315080025E034E400E004E100E0124B102210B51A6052
S315080025F0104B1A6812F0200FFAD010221A600268DF
S315080026000D49013A140C04F00F0492B20C604A60AA
S315080026104268140C92B20C614A618268100C92B23C
S315080026208861CA6100221A60024B1B6813F0200FEA
S31508002630FAD010BD04280040082800400A4B1A6842
S3150800264012F0200FFAD0102230FA02F11A60074A67
S3150800265080B21160506000221A60034B1B6813F0A9
S31508002660200FFAD0704700BF0428004020280040F9
S315080026700B4B1A6812F0200FFAD01022013830FAE4
S3150800268002F11A60074A01F00F0180B2116050602A
S3150800269000221A60024B1B6813F0200FFAD070470D
S315080026A004280040082800400E4B1B6813F0200F32
S315080026B0FAD00D4B1A6804331B689BB243EA0243EF
S315080026C003600A4B1A6804331B689BB243EA024349
S315080026D04360074B1A6804331B689BB243EA0243FC
S315080026E083607047042800400828004018280040E6
S315080026F020280040064B1B6813F0200FFAD0054B24
S31508002700186804331B689BB243EA0040704700BF51
S31508002710042800401828004010B5FFF7EBFF0446D0
S31508002720FFF7E8FFA042FBD0FFF7E4FF10F0030F26
S31508002730FAD110BD3C4B70B51B6813F0010F6AD077
S31508002740394A136813F0200FFAD0384C0023136067
S31508002750B4F874200132A4F87420B4F8742012B2C4
S31508002760032A5FDDB4F87820A4F874200AB1A4F827
S3150800277078302F4E01203368002123F0050333609B
S315080027803368D4E90423121843EB0103C4E904238C
S315080027903368B4F87A2043F005033360254B234D9C
S315080027A01B789A4213D2244EA5F87A303378012B37
S315080027B00DD1D5E90401D5E90623121843EB010327
S315080027C0C5E904230023EB6433702B646B651B4A4D
S315080027D0137823B100231370E26C2265E364226D3B
S315080027E0124B7AB11A6D002A05DA0122A3F878206D
S315080027F01A6D013205E04FF0FF32A3F878201A6D02
S31508002800013A1A65236C013323640D4B1A6842F4A6
S3150800281080021A6070BD044B1A6812F0200FFAD0B5
S3150800282000221A6070BD00BF04280040081200206C
S315080028300C0000400513002004130020B8120020E5
S3150800284004E200E008B5024BDB6F03B1984708BD08
S3150800285008120020034B1A6812F0200FFAD0002243
S315080028601A60704704280040144B1A6842F00102A7
S315080028701A6053F8042C42F0010243F8042C104B5A
S315080028801A6842F480721A609A6842F010029A60D6
S3150800289053F8182C42F0010243F8182C094B1A6811
S315080028A042F010021A60084B1A6842F080521A6009
S315080028B0064B1A6842F005021A6070471C1002405F
S315080028C0180000401CE400E000E100E00C000040B5
S315080028D00C4B70B51B680C4E33800A49D6E90023A9
S315080028E009680A4C3180D6E900014FF0FF3550409F
S315080028F059402040294050EA0104EED110461946B5
S3150800290070BD00BF24000040881200200000FFFFB1
S31508002910064B1A68064B1A80044A186812681A8009
S315080029205A8892B2B2EB104FF6D170472400004095
S31508002930881200200A4B70B5196821F00501196044
S31508002940196808498D680C8A0749A4B2096A1E687D
S3150800295046F005061E6005604460816070BD00BFD4
S315080029600C0000408812002018120020524B70B547
S315080029701B6803F00503042B14D0052B49D0012B43
S3150800298040F099804D4C013B4D4D23604FF480300B
S31508002990D5E900230021121843EB0103C5E90023FA
S315080029A0236870BD474CD4E90001C4E90801B4F8AE
S315080029B06430A4F86630D4E90801D4E9002342401B
S315080029C04B4052EA0301EDD1B4F86420B4F86630FE
S315080029D012B21BB29A42E5D13B4B1A68384B1A839E
S315080029E05A885A835A68DA611A8A01321A82D3E9EE
S315080029F00601C3E90201354B1B681BB90A2096215B
S31508002A00012202E00A2096210622BDE87040FDF761
S31508002A10CBBF2A4B00221A602A4CD4E90023C4E90A
S31508002A200823B4F86430A4F86630D4E90801D4E978
S31508002A30002342404B4052EA0300EDD1B4F8662029
S31508002A40B4F8643012B21BB29A42E5D11E4B1C4C44
S31508002A501B682383638863836368E361238B1BB2E4
S31508002A60002B09DB4FF48030D4E906230021121825
S31508002A7043EB0103C4E90623238A4FF4803001336C
S31508002A802382D4E90623C4E902230021D4E90023DA
S31508002A90121843EB0103C4E900230C4B1B681BB94E
S31508002AA00A209621012202E00A2096210622FDF735
S31508002AB07BFF024B1B6870BD1000004000020042FD
S31508002AC0881200201812002038000040500D0020FF
S31508002AD073B5FFF721FE2049204DD1E90023B1F84F
S31508002AE06440921804F0030443EB0303921843EB83
S31508002AF003032243060C2E60140C686095B218482E
S31508002B009AB2184B056044601A604A6C12145A60EF
S31508002B104A6C9A600A6B120CDA600A6B1A618A6C44
S31508002B2092B25A6100220023CDE900230122DDE991
S31508002B3000010023121843EB0103CDE9002304A387
S31508002B40D3E90023824273EB0104EFDA7CBD00BFB0
S31508002B503F420F000000000018120020046C0040DD
S31508002B600C6C0040146C004010B5FFF7D5FD214BE6
S31508002B7000221968002361F30F021F491F4C0968D8
S31508002B8061F31F421E49096861F30F031D496FF37C
S31508002B901F430968246889B241EA0441411A1A4C5C
S31508002BA0521843F10003C4E90023184B196023683F
S31508002BB003F00303A4F86430D4E90001820842EA6A
S31508002BC081728B08C4E90023114B124A1B681268EC
S31508002BD09BB243EA024363640F4B104A1B681268B0
S31508002BE09BB243EA024323630D4B1B681BB2A364E3
S31508002BF010BD00BF0C6C0040106C0040046C004017
S31508002C00146C0040086C004018120020A81200201E
S31508002C101C6C0040186C0040246C0040206C00407E
S31508002C20286C00404000401A91FBF0F1014890FBE7
S31508002C30F1F0704700E1F505094B98420BD8094BAE
S31508002C40984208D9084B994207D8084881428CBF50
S31508002C50002001207047012070470120704700BFFF
S31508002C6088496E0177226E01887FDC027758DC027C
S31508002C70F8B5294C236BB3F5A04F4CD30023236337
S31508002C8080B209F0BFFC254BE26C5F69A36D244D49
S31508002C90D318244E5D19C71929463068FFF7CCFFAB
S31508002CA0214B40B932685200521B95FBF2F51F4A78
S31508002CB092FBF5F502E0A56C5A68AD18616C0A201E
S31508002CC0DD6000FB05156564606C4EF66B61884235
S31508002CD09F60114A0CDD506C1549164C90FBF1F1BA
S31508002CE0D06B0131401AD063506C04FB01010FE030
S31508002CF0506C114988420CDA546C0D49D06B94FB20
S31508002D00F1F10138411AD163516CA1F5EE31D6398A
S31508002D10516401221A74F8BD18120020A00D002073
S31508002D20006CDC02C80E0020A812002000CA9A3BDC
S31508002D30D6DC01002A23FEFF9511FFFF08B5084AD5
S31508002D40084B10681968884205D012681A60064B45
S31508002D501868FFF78DFF054B5B6903B1984708BDF7
S31508002D60D80B0020E80B0020D40B0020A812002066
S31508002D70024B00229A61DA61704700BFA812002050
S31508002D80094BD9699A690131821809299A61D96169
S31508002D9007D9B2FBF1F20A214A431A6200229A6164
S31508002DA0DA61186A704700BFA812002038B50E4BC2
S31508002DB004469A8C042A03D004229A840222DA84CE
S31508002DC0094D996205F1240009F076FC10B92060D6
S31508002DD0606007E02B6D0A221B115343093A5B1109
S31508002DE022606360204638BDA812002073B50446E9
S31508002DF00D46084611461646FFF71EFF98B928469F
S31508002E003146FFF70FFF054629466846FFF7CEFF0E
S31508002E10009B019A012B0AD10749886D042805D819
S31508002E200130886502E000252B4600E01546236040
S31508002E30656020467CBD00BFA812002070B5164DFF
S31508002E40D5E9022352EA030125D04FF48060002118
S31508002E50D5E90223904271EB0304104C08DB104AB3
S31508002E604FF0FF33D5E90201904271EB030603DA0E
S31508002E70012384F85C3009E0002384F85C30AB68F1
S31508002E809B005B42EB63237C0133237494F85D302B
S31508002E90013384F85D3070BD18120020A812002096
S31508002EA000FCFFFF38B50446084601F0B9F8E168AA
S31508002EB0054601F009F9A16800F0FEFF014628461B
S31508002EC001F002F9616800F0F7FF0146284601F0B3
S31508002ED0FBF8216800F0F0FF01F046FA38BD37B577
S31508002EE06846FDF7C7FB019A009BE2B10E4C1B8AA8
S31508002EF00E4DE365E06D80B209F084FB2066226E14
S31508002F006B690B48D3182366216E6B6DC91AFFF7D8
S31508002F10C9FFAB6DC31A6365216E0648FFF7C2FF8A
S31508002F20EB6DC31AA3653EBD18120020A00D002044
S31508002F3018E6000828E600084FF0FF307047034BF4
S31508002F400C221A604FF0FF30704700BFA4270020FC
S31508002F50024B0B221A604FF0FF307047A42700205F
S31508002F604FF400534B600020704701207047022839
S31508002F7004D9034B09221A600020704701207047C4
S31508002F80A4270020024B16221A604FF0FF30704724
S31508002F90A4270020024B1F221A604FF0FF3070470B
S31508002FA0A427002000207047044B1A680AB9044A6F
S31508002FB01A601A6810181860104670470C1300201B
S31508002FC0A827002020B1034B09221A604FF0FF30D2
S31508002FD0704700BFA42700204FF400534B60002021
S31508002FE070474FF0FF307047024B02221A604FF0CD
S31508002FF0FF307047A4270020024B0A221A604FF0C0
S31508003000FF307047A4270020012870B50C461646E5
S3150800301003D0022821D100251CE000250BE0605DC5
S3150800302008F096F8635D0A2B04D10D2008F090F895
S3150800303008F0C0F80135B542F1DB13E0605D08F031
S3150800304087F8635D0A2B04D10D2008F081F808F093
S31508003050B1F80135B542F1DB04E0034B09221A60E9
S315080030604FF0FF36304670BDA427002008B5012072
S3150800307002490422FFF7C8FFFEE700BF75E1000812
S31508003080002310B51A460446E15801B1013204334B
S31508003090B3F5807FF8D1092A0DD92046402109F0D9
S315080030A0E3F848B9E368A3F540631C3BB3F5167F1C
S315080030B002D9023010BD012010BD10B5ADF5007D56
S315080030C06946044609F082FE0D4B1A781AB168461D
S315080030D009F0ACFA07E05B7873B1684609494FF422
S315080030E0807202F01BF93F21684609F0BDF869466F
S315080030F03F90204609F08CFE0DF5007D10BD00BFFF
S3150800310014130020A00D002010B5ADF5007D69460A
S31508003110002009F05BFE6846FFF7B2FF0E4C80B14F
S315080031200120694609F052FE6846FFF7A9FF28B94B
S315080031300A4869464FF4807202F0F0F8012363707A
S3150800314005E0064869464FF4807202F0E7F86078B1
S315080031500DF5007D10BD00BF14130020A00D002042
S31508003160002010B5FFF7A9FF0120BDE81040A4E72D
S3150800317070B590B005466B460024285D16490209CD
S3150800318000F00F008E5C095C1A4602F8016B597054
S315080031902023511C5370931C04F00F020F2A0AD1E6
S315080031A000234B70684607F0EFFF0C4807F0ECFF6A
S315080031B008F000F86B460134B4F5807FDDD10022B3
S315080031C01A70684607F0E0FF044807F0DDFF07F0CD
S315080031D0F1FF10B070BD00BF48E60008CADB000862
S315080031E037B52D4C08B9206055E002280DD1626824
S315080031F02A4BA56893E803001A605D60284B0434DF
S3150800320084E8030043F8225042E02368042B3FD8A1
S31508003210DFE803F003141E283500204B21481968FF
S315080032205B680093204B53F821201D4B53F821303F
S3150800323007F072FE07F0BEFF0123236007F0C8FF00
S3150800324040BB1A4807F0A0FF07F0B4FF022323602B
S3150800325007F0BEFFF0B9164807F096FF07F0AAFF79
S315080032600323236007F0B4FF054698B9114807F011
S315080032708BFF07F09FFF0423236028460BE0074ACD
S3150800328013685168064A636042F8231005232360D1
S31508003290002000E001203EBD18150020080F002080
S315080032A0A00D00207BE100082C000020C5E10008E5
S315080032B009E2000855E200082DE9704F8AB0044675
S315080032C00D4600F04FF840F22C16C2F2000696F9A9
S315080032D00030B3F1FF3F8046894631D02046294663
S315080032E000F020F900282BD04FF0000A4FF0000B11
S315080032F02046294652465B4600F088FD00B33678DC
S315080033004EF2E843C0F6000301220193002300921F
S315080033100893CDE90445CDE90245B6B1504659466C
S3150800332052465B4600F02AFC022ECDE906010ED174
S3150800333001F006FD21230360089B73B9DDE90689C0
S31508003340404649460AB0BDE8708FCDE906AB6846E7
S3150800335000F030F90028EFD1EAE701F0F1FC089B0C
S315080033600360EBE74FF0000C02462DE9F843E04610
S31508003370C7F6F07CC7F6F07801EA0C0C0446C4459B
S315080033800D460B460E46074600F0B080002940F36E
S31508003390A0800A157ED026F07F4312F0010FA2F511
S315080033A07E7C23F47003ACF1070C43F4801362D0DF
S315080033B0FA0F002602EB43034FEA6C0C7F00162037
S315080033C031464FF400128C18FD0F9C424FEA47070E
S315080033D0DEBFC4EB0303A118B6185208013805EB83
S315080033E04303F0D1202580464FF00042994202EB74
S315080033F008040EDB8B4214BF4FF000094FF0010999
S31508003400BC428CBF4FF0000909F00109B9F1000F61
S315080034100ED004F0004904EB0208B9F1004F23D09E
S3150800342089465B1ABC4288BF013B3F1B8018494648
S31508003430FC0F52087F00013D04EB4303D6D13B4302
S315080034401ED140084FEA0C52731002F17E5216F054
S31508003450010F18BF40F0004002F5C002D518044617
S3150800346020462946BDE8F883B8F1000FA8BF01F148
S315080034700109D6DAD4E7FA0F7F0002EB430397E790
S31508003480B0F1FF3F1CBF00F001031818D9D101366F
S315080034902846D7E7012216F4801335D17600013382
S315080034A016F4801FFAD0C3F1200137FA01F1D21AB7
S315080034B00E439F4026F07F4312F0010FA2F57E7C53
S315080034C023F47003ACF1070C43F480137FF470AF58
S315080034D0D1E721F0004C5CEA000CC1D0B9B9FE0A6C
S315080034E0153B7F05002EFAD05A1CD4E700F01CFACB
S315080034F002460B462046294600F064F804460D4667
S3150800350020462946BDE8F88320210023CDE7024658
S315080035100B4600F055F802460B4600F02FFB044612
S315080035200D469DE750EA010310B43CD0D0F10102E4
S3150800353038BF0022B1F1004F14BF002302F0010387
S31508003540002B30D14FF6FF73A1F58010C7F6DF7355
S3150800355001F1FE44984204F570048CBF0020012056
S315080035609C428CBF034640F00103002B20D1B1F5E5
S31508003570801F01F100402CBF00230123B0F5801FF6
S3150800358038BF43F001038BB911F5801FC7F6F073F6
S3150800359014BF00200120994214BF014640F00101E2
S315080035A002EA010000E0022010BC70470320FBE796
S315080035B00420F9E70020704781F0004102E000BFCF
S315080035C083F0004330B54FEA41044FEA430594EAD5
S315080035D0050F08BF90EA020F1FBF54EA000C55EA10
S315080035E0020C7FEA645C7FEA655C00F0E2804FEAE1
S315080035F05454D4EB5555B8BF6D420CDD2C4480EAC3
S31508003600020281EA030382EA000083EA010180EAF2
S31508003610020281EA0303362D88BF30BD11F0004F40
S315080036204FEA01314FF4801C4CEA113102D0404276
S3150800363061EB410113F0004F4FEA03334CEA1333B1
S3150800364002D0524263EB430394EA050F00F0A780C9
S31508003650A4F10104D5F1200E0DDB02FA0EFC22FAC4
S3150800366005F2801841F1000103FA0EF2801843FAB8
S3150800367005F359410EE0A5F120050EF1200E012AA9
S3150800368003FA0EFC28BF4CF0020C43FA05F3C018E7
S3150800369051EBE37101F0004507D54FF0000EDCF160
S315080036A0000C7EEB00006EEB0101B1F5801F1BD309
S315080036B0B1F5001F0CD349085FEA30004FEA3C0C0D
S315080036C004F101044FEA445212F5800F80F09A8003
S315080036D0BCF1004F08BF5FEA500C50F1000041EB07
S315080036E0045141EA050130BD5FEA4C0C404141EB0B
S315080036F0010111F4801FA4F10104E9D191F0000F32
S3150800370004BF01460020B1FA81F308BF2033A3F1B4
S315080037100B03B3F120020CDA0C3208DD02F1140CAB
S31508003720C2F10C0201FA0CF021FA02F10CE002F1E6
S315080037301402D8BFC2F1200C01FA02F120FA0CFCDF
S31508003740DCBF41EA0C019040E41AA2BF01EB045128
S31508003750294330BD6FEA04041F3C1CDA0C340EDC26
S3150800376004F11404C4F1200220FA04F001FA02F369
S3150800377040EA030021FA04F345EA030130BDC4F127
S315080037800C04C4F1200220FA02F001FA04F340EA1C
S315080037900300294630BD21FA04F0294630BD94F0CD
S315080037A0000F83F4801306BF81F480110134013DB4
S315080037B04EE77FEA645C18BF7FEA655C29D094EA25
S315080037C0050F08BF90EA020F05D054EA000C04BFA3
S315080037D01946104630BD91EA030F1EBF002100208E
S315080037E030BD5FEA545C05D14000494128BF41F02D
S315080037F0004130BD14F580043CBF01F5801130BD91
S3150800380001F0004545F0FE4141F470014FF000001B
S3150800381030BD7FEA645C1ABF194610467FEA655CCC
S315080038201CBF0B46024650EA013406BF52EA03356E
S3150800383091EA030F41F4002130BD00BF90F0000F5C
S3150800384004BF0021704730B54FF4806404F1320498
S315080038504FF000054FF0000150E700BF90F0000F51
S3150800386004BF0021704730B54FF4806404F1320478
S3150800387010F0004548BF40424FF000013EE700BF48
S3150800388042004FEAE2014FEA31014FEA02701FBFD8
S3150800389012F07F4393F07F4F81F06051704792F0AA
S315080038A0000F14BF93F07F4F704730B54FF4607424
S315080038B001F0004521F0004120E700BF50EA01026F
S315080038C008BF704730B54FF000050AE050EA01021C
S315080038D008BF704730B511F0004502D5404261EB8C
S315080038E041014FF4806404F132045FEA915C3FF4CD
S315080038F0DCAE4FF003025FEADC0C18BF03325FEA66
S31508003900DC0C18BF033202EBDC02C2F1200300FA1A
S3150800391003FC20FA02F001FA03FE40EA0E0021FA3F
S3150800392002F11444C1E600BF70B54FF0FF0C4CF429
S31508003930E06C1CEA11541DBF1CEA135594EA0C0FDF
S3150800394095EA0C0F00F0DEF82C4481EA030621EA1A
S315080039504C5123EA4C5350EA013518BF52EA033555
S3150800396041F4801143F4801338D0A0FB02CE4FF007
S315080039700005E1FB02E506F00042E0FB03E54FF037
S315080039800006E1FB03569CF0000F18BF4EF0010E2F
S31508003990A4F1FF04B6F5007F64F5407404D25FEA2B
S315080039A04E0E6D4146EB060642EAC62141EA5551DE
S315080039B04FEAC52040EA5E504FEACE2EB4F1FD0C20
S315080039C088BFBCF5E06F1ED8BEF1004F08BF5FEA9E
S315080039D0500E50F1000041EB045170BD06F0004650
S315080039E046EA010140EA020081EA0301B4EB5C04FD
S315080039F0C2BFD4EB0C0541EA045170BD41F48011F5
S31508003A004FF0000E013C00F3AB8014F1360FDEBF19
S31508003A10002001F0004170BDC4F10004203C35DAF5
S31508003A200C341BDC04F11404C4F1200500FA05F378
S31508003A3020FA04F001FA05F240EA020001F0004219
S31508003A4021F0004110EBD37021FA04F642EB06018F
S31508003A505EEA430E08BF20EAD37070BDC4F10C04B9
S31508003A60C4F1200500FA04F320FA05F001FA04F27D
S31508003A7040EA020001F0004110EBD37041F1000169
S31508003A805EEA430E08BF20EAD37070BDC4F1200574
S31508003A9000FA05F24EEA020E20FA04F301FA05F2DC
S31508003AA043EA020321FA04F001F0004121FA04F284
S31508003AB020EA020000EBD3705EEA430E08BF20EA54
S31508003AC0D37070BD94F0000F0FD101F0004640008E
S31508003AD041EB010111F4801F08BF013CF7D041EA10
S31508003AE0060195F0000F18BF704703F00046520014
S31508003AF043EB030313F4801F08BF013DF7D043EAE5
S31508003B000603704794EA0C0F0CEA135518BF95EA9A
S31508003B100C0F0CD050EA410618BF52EA4306D1D121
S31508003B2081EA030101F000414FF0000070BD50EA40
S31508003B30410606BF1046194652EA430619D094EACA
S31508003B400C0F02D150EA013613D195EA0C0F05D1B4
S31508003B5052EA03361CBF104619460AD181EA030108
S31508003B6001F0004141F0FE4141F470014FF00000C0
S31508003B7070BD41F0FE4141F4780170BD70B54FF05B
S31508003B80FF0C4CF4E06C1CEA11541DBF1CEA1355DB
S31508003B9094EA0C0F95EA0C0F00F0A7F8A4EB0504BD
S31508003BA081EA030E52EA03354FEA013100F08880B4
S31508003BB04FEA03334FF0805545EA131343EA12637D
S31508003BC04FEA022245EA111545EA10654FEA002632
S31508003BD00EF000419D4208BF964244F1FD0404F5EB
S31508003BE0407402D25B084FEA3202B61A65EB030547
S31508003BF05B084FEA32024FF480104FF4002CB6EB04
S31508003C00020E75EB030E22BFB61A754640EA0C0083
S31508003C105B084FEA3202B6EB020E75EB030E22BFC3
S31508003C20B61A754640EA5C005B084FEA3202B6EB04
S31508003C30020E75EB030E22BFB61A754640EA9C00C3
S31508003C405B084FEA3202B6EB020E75EB030E22BF93
S31508003C50B61A754640EADC0055EA060E18D04FEA51
S31508003C60051545EA16754FEA06164FEAC30343EAF1
S31508003C7052734FEAC2025FEA1C1CC0D111F4801FBE
S31508003C800BD141EA00014FF000004FF0004CB6E7B7
S31508003C9011F4801F04BF01430020B4F1FD0C88BF56
S31508003CA0BCF5E06F3FF6AFAEB5EB030C04BFB6EB61
S31508003CB0020C5FEA500C50F1000041EB045170BD54
S31508003CC00EF0004E4EEA113114EB5C04C2BFD4EB81
S31508003CD00C0541EA045170BD41F480114FF0000E05
S31508003CE0013C90E645EA060E8DE60CEA135594EA81
S31508003CF00C0F08BF95EA0C0F3FF43BAF94EA0C0F84
S31508003D000AD150EA01347FF434AF95EA0C0F7FF4F8
S31508003D1025AF104619462CE795EA0C0F06D152EA4C
S31508003D2003353FF4FDAE1046194622E750EA410630
S31508003D3018BF52EA43067FF4C5AE50EA41047FF441
S31508003D400DAF52EA43057FF4EBAE12E74FF0FF3CA6
S31508003D5006E000BF4FF0010C02E000BF4FF0010C77
S31508003D604DF804CD4FEA410C7FEA6C5C4FEA430CF0
S31508003D7018BF7FEA6C5C1BD001B050EA410C0CBF3F
S31508003D8052EA430C91EA030F02BF90EA020F0020A1
S31508003D90704710F1000F91EA030F58BF994208BF08
S31508003DA090422CBFD8176FEAE37040F001007047C5
S31508003DB04FEA410C7FEA6C5C02D150EA013C07D11C
S31508003DC04FEA430C7FEA6C5CD6D152EA033CD3D067
S31508003DD05DF8040B704700BF8446104662468C4661
S31508003DE01946634600E000BF01B5FFF7B7FF002894
S31508003DF048BF10F1000F01BD4DF808EDFFF7F4FFBD
S31508003E000CBF012000205DF808FB00BF4DF808ED47
S31508003E10FFF7EAFF34BF012000205DF808FB00BF6A
S31508003E204DF808EDFFF7E0FF94BF012000205DF88C
S31508003E3008FB00BF4DF808EDFFF7CEFF94BF012041
S31508003E4000205DF808FB00BF4DF808EDFFF7C4FF3A
S31508003E5034BF012000205DF808FB00BF4FEA41028D
S31508003E6012F5001215D211D56FF47873B3EB6252BE
S31508003E7012D94FEAC12343F0004343EA505311F0E5
S31508003E80004F23FA02F018BF404270474FF0000077
S31508003E90704750EA013005D111F0004008BF6FF0B5
S31508003EA0004070474FF00000704700BF80F00040A8
S31508003EB002E000BF81F0004142001FBF5FEA4103F4
S31508003EC092EA030F7FEA226C7FEA236C6AD04FEAF4
S31508003ED01262D2EB1363C1BFD21841404840414039
S31508003EE0B8BF5B42192B88BF704710F0004F40F4EB
S31508003EF0000020F07F4018BF404211F0004F41F407
S31508003F00000121F07F4118BF494292EA030F3FD0D2
S31508003F10A2F1010241FA03FC10EB0C00C3F12003E5
S31508003F2001FA03F100F0004302D5494260EB400074
S31508003F30B0F5000F13D3B0F1807F06D340084FEADF
S31508003F40310102F10102FE2A51D2B1F1004F40EBD4
S31508003F50C25008BF20F0010040EA0300704749003C
S31508003F6040EB000010F4000FA2F10102EDD1B0FA07
S31508003F7080FCACF1080CB2EB0C0200FA0CF0AABFFC
S31508003F8000EBC25052421843BCBFD040184370479A
S31508003F9092F0000F81F4000106BF80F400000132A0
S31508003FA0013BB5E74FEA41037FEA226C18BF7FEA77
S31508003FB0236C21D092EA030F04D092F0000F08BFB9
S31508003FC00846704790EA010F1CBF0020704712F0A0
S31508003FD07F4F04D1400028BF40F00040704712F1DF
S31508003FE000723CBF00F50000704700F0004343F044
S31508003FF0FE4040F4000070477FEA226216BF08467A
S315080040007FEA23630146420206BF5FEA412390EA3C
S31508004010010F40F4800070474FF0000304E000BF32
S3150800402010F0004348BF40425FEA000C08BF7047E3
S3150800403043F0964301464FF000001CE050EA0102A7
S3150800404008BF70474FF000030AE000BF50EA0102BC
S3150800405008BF704711F0004302D5404261EB4101A9
S315080040605FEA010C02BF84460146002043F0B643CE
S3150800407008BFA3F18053A3F50003BCFA8CF2083AF3
S31508004080A3EBC25310DB01FA02FC634400FA02FCFC
S31508004090C2F12002BCF1004F20FA02F243EB020003
S315080040A008BF20F00100704702F1200201FA02FC65
S315080040B0C2F1200250EA4C0021FA02F243EB020058
S315080040C008BF20EADC7070474FF0FF0C1CEAD0529C
S315080040D01EBF1CEAD15392EA0C0F93EA0C0F6FD05D
S315080040E01A4480EA010C400218BF5FEA41211ED03B
S315080040F04FF0006343EA501043EA5111A0FB013127
S315080041000CF00040B1F5000F3EBF490041EAD371FB
S315080041105B0040EA010062F17F02FD2A1DD8B3F177
S31508004120004F40EBC25008BF20F00100704790F0E6
S31508004130000F0CF0004C08BF49024CEA502040EA38
S3150800414051207F3AC2BFD2F1FF0340EAC2507047FE
S3150800415040F400004FF00003013A5DDC12F1190F3C
S31508004160DCBF00F000407047C2F10002410021FAAE
S3150800417002F1C2F1200200FA02FC5FEA310040F1C6
S31508004180000053EA4C0308BF20EADC70704792F03F
S31508004190000F00F0004C02BF400010F4000F013A77
S315080041A0F9D040EA0C0093F0000F01F0004C02BF72
S315080041B0490011F4000F013BF9D041EA0C018FE7E1
S315080041C00CEAD15392EA0C0F18BF93EA0C0F0AD0E7
S315080041D030F0004C18BF31F0004CD8D180EA01000D
S315080041E000F00040704790F0000F17BF90F0004FA6
S315080041F0084691F0000F91F0004F14D092EA0C0F88
S3150800420001D142020FD193EA0C0F03D14B0218BF1A
S31508004210084608D180EA010000F0004040F0FE4060
S3150800422040F40000704740F0FE4040F440007047FC
S315080042304FF0FF0C1CEAD0521EBF1CEAD15392EA7B
S315080042400C0F93EA0C0F69D0A2EB030280EA010C6B
S3150800425049024FEA402037D04FF0805343EA111104
S3150800426043EA10130CF000408B4238BF5B0042F162
S315080042707D024FF4000C8B4224BF5B1A40EA0C0007
S31508004280B3EB510F24BFA3EB510340EA5C00B3EB39
S31508004290910F24BFA3EB910340EA9C00B3EBD10F27
S315080042A024BFA3EBD10340EADC001B0118BF5FEA79
S315080042B01C1CE0D1FD2A3FF650AF8B4240EBC250A2
S315080042C008BF20F0010070470CF0004C4CEA502063
S315080042D07F32C2BFD2F1FF0340EAC250704740F4B2
S315080042E000004FF00003013A37E792F0000F00F0A4
S315080042F0004C02BF400010F4000F013AF9D040EA22
S315080043000C0093F0000F01F0004C02BF490011F4B5
S31508004310000F013BF9D041EA0C0195E70CEAD153AD
S3150800432092EA0C0F08D142027FF47DAF93EA0C0F94
S315080043307FF470AF084676E793EA0C0F04D14B0278
S315080043403FF44CAF08466EE730F0004C18BF31F02A
S31508004350004CCAD130F000427FF45CAF31F0004324
S315080043607FF43CAF5FE700BF4FEA4002B2F1FE4F71
S315080043700FD34FF09E03B3EB12620DD94FEA002319
S3150800438043F0004310F0004F23FA02F018BF4042F2
S3150800439070474FF00000704712F1610F01D14202D9
S315080043A005D110F0004008BF6FF0004070474FF08D
S315080043B00000704773B96AB9002908BF0028BCBF56
S315080043C000204FF00041C4BF6FF000414FF0FF30AE
S315080043D000F03CB882B0EC462DE9005000F006F833
S315080043E0DDF804E002B00CBC704700BF2DE970434D
S315080043F01646804689461D4600F02AF800FB05F356
S31508004400A0FB064506FB0136069B7519B8EB0404A6
S3150800441069EB0505C3E90045BDE870832DE97043DE
S315080044201646804689461D4600F0C2F900FB05F38C
S31508004430A0FB064506FB0136069B7519B8EB040476
S3150800444069EB0505C3E90045BDE87083704700BF01
S3150800445000292DE9F04F1C4685B0C0F2CB80002616
S31508004460002CC0F2C2808C4617461446054688467C
S315080044709A46002B4AD18A426ED9B2FA82F35BB1C8
S31508004480C3F1200401FA03F830FA04F210FA03F52E
S3150800449017FA03F442EA08084FEA144A4046514616
S315080044A01FFA84FB00F008FB51468146404600F09F
S315080044B031FC280C0BFB09F340EA0148434509D9AE
S315080044C018EB040809F1FF3904D2434584BF09F102
S315080044D0FF39A044C3EB080851464046ADB200F088
S315080044E0EBFA51460746404600F014FC0BFB07FB67
S315080044F045EA0145AB4505D9013F2D1902D2AB4521
S3150800450088BF013F47EA0949002403E08B420CD9DA
S315080045100024A1464A46234616B1524263EB43039A
S315080045201046194605B0BDE8F08FB3FA83F4002C9F
S3150800453040F0B3808B424FF001092CBF4FF0000CBE
S315080045404FF0010C82428CBF67464CF00107002FE2
S31508004550E0D13C46B946DDE722B90120114600F014
S31508004560ABFA0446B4FA84F3002B49D1C4EB080825
S31508004570270C1FFA84FA012102913946404600F0B9
S315080045809BFA39468146404600F0C4FB2A0C0AFBD2
S3150800459009F342EA014B5B4509D91BEB040B09F108
S315080045A0FF3904D25B4584BF09F1FF39A344C3EB45
S315080045B00B0B39465846ADB200F07EFA39468046AE
S315080045C0584600F0A7FB0AFB08FA45EA0145AA4542
S315080045D007D92D1908F1FF3803D2AA4588BF08F173
S315080045E0FF3848EA0949029C94E7F643524263EBCE
S315080045F0430338E7404261EB41014FF0FF362FE7AE
S315080046009C40C3F1200728FA07FA35FA07F2270C67
S3150800461008FA03FB3946504642EA0B029D400292CD
S3150800462000F04AFA39468346504600F073FB029B6F
S315080046301FFA84FA4FEA13490AFB0BF349EA0148C1
S31508004640434505D918EB04080BF1FF3BC0F0AA80D7
S31508004650C3EB08083946404600F02EFA394681462B
S31508004660404600F057FB02980AFB09F31FFA80FC44
S315080046704CEA0148434509D918EB040809F1FF3902
S3150800468004D2434584BF09F1FF39A04449EA0B4ED9
S31508004690C3EB0808CDF808E06FE7C4F120030AFA6F
S315080046A004FADA4021FA03F842EA0A0A01FA04F996
S315080046B030FA03F240464FEA1A4B42EA09010391DF
S315080046C0594617FA04F3029300F0F6F9594681465B
S315080046D0404600F01FFB1FFA8AF3039803FB09F212
S315080046E0070C47EA0148424504D918EB0A0809F1BC
S315080046F0FF3951D3C2EB080859464046019300F0EA
S31508004700DBF959460746404600F004FB019B03982F
S3150800471003FB07F31FFA80FC4CEA014C634507D9F3
S31508004720013F1CEB0A0C03D2634501D9013FD4446F
S3150800473047EA0949029FC3EB0C0C1FFA89FE4FEAA8
S315080047401943B8B23F0C00FB0EF800FB03F107FB58
S315080047500E1207FB03F002EB1842914288BF00F5E0
S31508004760803000EB124EF44512D34FEA02421FFA8C
S3150800477088F814BF0021012102EB080C15FA04F48D
S3150800478064452CBF002401F00104002C3FF4C2AE9E
S3150800479009F1FF390024BDE6424584BF09F1FF3916
S315080047A0D044A7E7434584BF0BF1FF3BA0444FE73E
S315080047B02DE9F04F054683B00C46174680460E464F
S315080047C0002B4DD18A4261D9B2FA82F353B1C3F1B3
S315080047D0200411FA03F630FA04F29F4042EA06066C
S315080047E000FA03F83C0C304621461FFA87FA00F017
S315080047F063F921468146304600F08CFA4FEA1840A4
S315080048000AFB09F340EA0146B34208D9F61909F149
S31508004810FF3904D2B34284BF09F1FF39F619F61AF3
S31508004820214630461FFA88F800F046F92146054623
S31508004830304600F06FFA0AFB05FA48EA0148C24515
S3150800484006D9013D18EB070802D2C24588BF013DCB
S3150800485045EA094A00263146504603B0BDE8F08FBE
S315080048608B425BD8B3FA83F6002E5AD18B424FF0AF
S31508004870010A2CBF0024012482428CBF254644F03D
S315080048800105002DE7D12E46AA46E4E722B9012004
S31508004890114600F011F90746B7FA87F3002B40F0E6
S315080048A0B680E41B4FEA174BBDB20126594620468F
S315080048B000F002F959464FEA18498246204600F0A8
S315080048C029FA05FB0AF349EA0144A34208D9E4197F
S315080048D00AF1FF3A04D2A34284BF0AF1FF3AE41967
S315080048E0E41A5946204600F0E7F85946814620461C
S315080048F000F010FA1FFA88F305FB09F543EA0148A8
S31508004900454508D918EB070809F1FF3903D245458B
S3150800491088BF09F1FF3949EA0A4A9CE70026B246E8
S3150800492099E7C6F12001B34032FA01F724FA01F9F2
S315080049301F43B44030FA01F348464FEA174843EAA2
S31508004940040101914146B240009200F0B5F8414693
S31508004950BCB28246484600F0DDF9019804FB0AF32A
S315080049604FEA104B4BEA014B5B4505D91BEB070B8E
S315080049700AF1FF3AC0F09380C3EB0B0B4146584649
S3150800498000F09AF841468146584600F0C3F9019866
S3150800499004FB09F41FFA80FC4CEA01439C4203D944
S315080049A0DB1909F1FF3974D3009F49EA0A4A1C1B2F
S315080049B01FFA8AFEB8B23A0C4FEA1A4700FB0EFCF9
S315080049C000FB07F302FB0E3102FB07F201EB1C4169
S315080049D08B4288BF02F5803202EB114E744512D322
S315080049E04FEA01411FFA8CF214BF0023012301EBA1
S315080049F0020C15FA06F666452CBF002603F00106DA
S31508004A00002E3FF428AF0AF1FF3A002623E79F401D
S31508004A10C3F1200134FA01F614FA03F24FEA174BF0
S31508004A2025FA01FA3046594605FA03F84AEA020A0F
S31508004A3000F042F85946BDB28146304600F06AF9A0
S31508004A404FEA1A4C05FB09F34CEA0144A34203D981
S31508004A50E41909F1FF3928D3E41A5946204600F02B
S31508004A602BF859460646204600F054F91FFA8AF4F0
S31508004A7005FB06F344EA0144A34206D9013EE419BC
S31508004A8003D2A34201D9013EE419E41A46EA0946CB
S31508004A900CE79C4284BF09F1FF39DB1984E75B45C3
S31508004AA084BF0AF1FF3ABB4466E7A34284BF09F113
S31508004AB0FF39E419D0E700BF4A1E08BF7047C0F0A7
S31508004AC02481884240F21681114200F01781B0FA1B
S31508004AD080F3B1FA81F2A2EB0303C3F11F0304A228
S31508004AE002EB03134FF000029F4600BFAFF30080AE
S31508004AF0B0EBC17F00BF42EB020228BFA0EBC1703A
S31508004B00B0EB817F00BF42EB020228BFA0EB8170A9
S31508004B10B0EB417F00BF42EB020228BFA0EB417019
S31508004B20B0EB017F00BF42EB020228BFA0EB017089
S31508004B30B0EBC16F00BF42EB020228BFA0EBC16019
S31508004B40B0EB816F00BF42EB020228BFA0EB816089
S31508004B50B0EB416F00BF42EB020228BFA0EB4160F9
S31508004B60B0EB016F00BF42EB020228BFA0EB016069
S31508004B70B0EBC15F00BF42EB020228BFA0EBC150F9
S31508004B80B0EB815F00BF42EB020228BFA0EB815069
S31508004B90B0EB415F00BF42EB020228BFA0EB4150D9
S31508004BA0B0EB015F00BF42EB020228BFA0EB015049
S31508004BB0B0EBC14F00BF42EB020228BFA0EBC140D9
S31508004BC0B0EB814F00BF42EB020228BFA0EB814049
S31508004BD0B0EB414F00BF42EB020228BFA0EB4140B9
S31508004BE0B0EB014F00BF42EB020228BFA0EB014029
S31508004BF0B0EBC13F00BF42EB020228BFA0EBC130B9
S31508004C00B0EB813F00BF42EB020228BFA0EB813028
S31508004C10B0EB413F00BF42EB020228BFA0EB413098
S31508004C20B0EB013F00BF42EB020228BFA0EB013008
S31508004C30B0EBC12F00BF42EB020228BFA0EBC12098
S31508004C40B0EB812F00BF42EB020228BFA0EB812008
S31508004C50B0EB412F00BF42EB020228BFA0EB412078
S31508004C60B0EB012F00BF42EB020228BFA0EB0120E8
S31508004C70B0EBC11F00BF42EB020228BFA0EBC11078
S31508004C80B0EB811F00BF42EB020228BFA0EB8110E8
S31508004C90B0EB411F00BF42EB020228BFA0EB411058
S31508004CA0B0EB011F00BF42EB020228BFA0EB0110C8
S31508004CB0B0EBC10F00BF42EB020228BFA0EBC10058
S31508004CC0B0EB810F00BF42EB020228BFA0EB8100C8
S31508004CD0B0EB410F00BF42EB020228BFA0EB410038
S31508004CE0B0EB010F00BF42EB020228BFA0EB0100A8
S31508004CF0104670470CBF012000207047B1FA81F2B8
S31508004D00C2F11F0220FA02F0704708B14FF0FF30D7
S31508004D10FFF79CBB0029F8D02DE90340FFF7CCFE2E
S31508004D20BDE8064002FB00F3A1EB0301704700BF94
S31508004D3010B500F00BF8BDE8104001F059B900BFF6
S31508004D4040F23013C2F200031868704770B540F29B
S31508004D503014C2F2000406462568E96B21B13046D4
S31508004D60BDE8704000F008B8242000F009F8236870
S31508004D70E863D96BF3E700BF002200F0C9BE00BFA5
S31508004D8040F230130146C2F20003186800F008B872
S31508004D9040F230130146C2F20003186801F0EEB97A
S31508004DA02DE9F04F01F10B04162C83B0064631D9D4
S31508004DB024F00704E30F8C422CBF194643F0010187
S31508004DC0002930D1304601F06BF8B4F5FC7F2FD2BC
S31508004DD04FEAD40C40F22425C2F2000505EBCC02BA
S31508004DE02F46D368934200F02D825C6803F10808C9
S31508004DF0DA68304624F0030499681B195C68CA60AF
S31508004E0044F0010491605C6001F04CF8404603B040
S31508004E10BDE8F08F002310248C422CBF194643F0BE
S31508004E2001010029CED00C234FF000083360EDE7CE
S31508004E305FEA542C04BF4FEAD40C4FEACC0040F08A
S31508004E40868040F22425C2F2000528182F46C3683A
S31508004E50984206D10DE0002980F27981DB689842F4
S31508004E6007D05A6822F00302111B0F29F3DD0CF153
S31508004E70FF3C0CF1010CBD4A93689A4208BF78685A
S31508004E8024D0586820F00300011B0F2900F3C081C5
S31508004E900029D260926080F29480B0F5007F80F09D
S31508004EA07781C0084FF0010ED7F8048007EBC001E0
S31508004EB080100EFA00F0D960D1F808E040EA080040
S31508004EC07860C3F808E0CEF80C308B604FF0010E1E
S31508004ED04FEAAC030EFA03FE86457DD810EA0E0F9C
S31508004EE008D12CF0030C4FEA4E0E0CF1040C10EA14
S31508004EF00E0FF8D007EBCC0AE146D046D8F80C00DE
S31508004F00804507D196E1002B80F2A681C0688045CE
S31508004F1000F09081416821F003010B1B0F2BF2DD95
S31508004F208046C568011944F0010E58F8087F43F019
S31508004F300104C0F804E030464C60FD60AF60D16003
S31508004F409160CA608A60CB5000F0ACFF5EE7BCF1A6
S31508004F50040F9EBF4FEA941C0CF1380C4FEACC00A4
S31508004F607FF66FAFBCF1140F9CBF0CF15B0C4FEAD8
S31508004F70CC007FF666AFBCF1540F9EBF4FEA143CD7
S31508004F800CF16E0C4FEACC007FF65BAFBCF5AA7F3E
S31508004F909EBF4FEAD43C0CF1770C4FEACC007FF663
S31508004FA050AF40F254539C4595BF4FEA944C4FF48A
S31508004FB07C700CF17C0C4FF07E0C98BF4FEACC004D
S31508004FC03FE71A1803F108083046536843F001030F
S31508004FD0536000F067FF19E7D7F80880D8F804305F
S31508004FE023F003094C45C4EB090294BF00230123AF
S31508004FF00F2AD8BF43F00103002B00F0B98041F215
S31508005000245AD5F80834C2F2000A3046B3F1FF3FF5
S31508005010DAF8002002F1100BA3441FBF0BF57E6BD4
S315080050200BF11F0B2BF47E6B2BF01F0B594600F070
S31508005030C7FFB0F1FF3F034600F0188108EB0901EE
S31508005040814200F21081DAF8042081425A44CAF8F3
S31508005050042000F03E81D5F808E440F22425C2F287
S315080050600005BEF1FF3F17BF8218C5F80804C1EB5B
S315080050700201CAF8041010F0070517BFC5F10805A4
S315080050804FF48055431905F5805503EB0B0230465E
S3150800509001931205120DAD1A294600F091FF019BE6
S315080050A0B0F1FF3F00F02C81C11A491941F0010106
S315080050B0DAF80420B84541F2245BBB602A44C2F200
S315080050C0000B5960CAF8042017D0B9F10F0F40F247
S315080050D0E180A9F10C03D8F8045023F00703052052
S315080050E008EB03010F2B05F0010543EA0505C8F88F
S315080050F004504860886000F2FB80DAF82C1041F210
S315080051002453C2F200038A42DAF8301088BFDA6202
S3150800511041F224538A42C2F2000340F2A780D7F82C
S3150800512008801A63D8F8043023F003039C42C4EBC2
S31508005130030294BF002301230F2AD8BF43F00103BB
S31508005140B3B130464FF0000800F0ACFE5EE69A18A0
S31508005150D9689C6803F108085568304645F001038C
S31508005160E1608C60536000F09DFE4FE62C02002043
S3150800517008EB040342F0010244F001043046C8F883
S31508005180044008F108085A60BB6000F08BFE3DE653
S31508005190410A04299CBF4FEA901E0EF1380E1DD90C
S315080051A0142998BF01F15B0E18D954299CBF4FEA00
S315080051B0103E0EF16E0E11D9B1F5AA7F9CBF4FEACB
S315080051C0D03E0EF1770E09D940F2545E714596BF6E
S315080051D04FEA904E4FF07E0E0EF17C0E07EBCE088E
S315080051E0D8F80810414503D147E08968884505D0B5
S315080051F0D1F804E02EF0030E7045F6D3D1F80CE092
S31508005200C3F80CE099607868CB60CEF808305DE6A4
S315080052101D1941F00107D56044F001049560304638
S315080052205C6003F10808EA60AA606F60695000F0E4
S3150800523039FEEBE509F1010919F0030F2FD008F142
S3150800524008085BE603F108025B699A4208BF0CF19D
S31508005250020C3FF410AEC8E580464318C2683046D3
S3150800526058F8081FCAE5B8453FF4EDAED7F80880E8
S31508005270D8F8043023F0030358E74FF00109D7F8AC
S3150800528004804FEAAE008E4609FA00F048EA0000AC
S315080052907860B5E7984601225A60002346E75146EA
S315080052A01CF0030F0B460CF1FF3C2CD053F80819E1
S315080052B09942F5D07B684FEA4E0E9E453FF68CAE76
S315080052C0BEF1000F3FF488AE1EEA030F20D0CC468D
S315080052D010E64FEA015E4FEA1E5EBEF1000F7FF44C
S315080052E0BAAEBB680BEB090141F00101596004E74E
S315080052F0304608F1080100F041FFDBF80420FCE61F
S3150800530001210025D4E67B6823EA0E037B60D1E7FA
S315080053104FEA4E0E09F10409D6E700BF032A2DE924
S31508005320F00109D82AB10023CC5CC4540133934256
S31508005330FAD1BDE8F00170470B468218014603E032
S315080053402478013301F8014B11F0030F1C46F7D1FD
S3150800535013F003055DD06E42C5F1040CED009B59B0
S315080053604FEACC0C08E00434A7593B4607FA0CF779
S3150800537048EA070741F8047B571A23FA05F8032F6A
S31508005380F1DC03E014F8013B01F8013B8A42F9D845
S31508005390CFE753F8404C41F8404C53F83C4C41F8A1
S315080053A03C4C53F8384C41F8384C53F8344C41F8D7
S315080053B0344C53F8304C41F8304C53F82C4C41F8E7
S315080053C02C4C53F8284C41F8284C53F8244C41F8F7
S315080053D0244C53F8204C41F8204C53F81C4C41F807
S315080053E01C4C53F8184C41F8184C53F8144C41F817
S315080053F0144C53F8104C41F8104C53F80C4C41F827
S315080054000C4C53F8084C41F8084C53F8044C41F836
S31508005410044C561A1D460C46403340313F2EB8DC24
S315080054202B460FE053F8101C44F8101C53F80C1CBC
S3150800543044F80C1C53F8081C44F8081C53F8041CC0
S3150800544044F8041C161B21461D46103410330F2E33
S31508005450E8DC2B4602E0246841F8044B551A1C4642
S31508005460032D03F10403F6DC90E700BF01682DE97C
S31508005470F0473B2982B0044698BF416800F2E680AF
S315080054803B2998BFA16800F2CF80172900F2BA809D
S3150800549021690B29D8BF636900F3A28013F0030FB3
S315080054A030D148F21F52D817C5F2EB1282FB0365BA
S315080054B0C0EB6510642505FB103000287FD0E26834
S315080054C01D26002A22DC48F21F554EF25C60C5F202
S315080054D0EB1564274FF4C87CC0F600004B1E002964
S315080054E000F0C680012B04BF1946334602D0194680
S315080054F050F82330D218002AF0DD2161E26002B0AC
S31508005500BDE8F0871C26E268002ADCDD4EF25C6501
